{"abi":[{"type":"function","name":"addCar","inputs":[{"name":"_make","type":"string","internalType":"string"},{"name":"_model","type":"string","internalType":"string"},{"name":"_color","type":"string","internalType":"string"},{"name":"_numberOfDoors","type":"uint8","internalType":"uint8"}],"outputs":[],"stateMutability":"nonpayable"},{"type":"function","name":"garage","inputs":[{"name":"","type":"address","internalType":"address"},{"name":"","type":"uint256","internalType":"uint256"}],"outputs":[{"name":"make","type":"string","internalType":"string"},{"name":"model","type":"string","internalType":"string"},{"name":"color","type":"string","internalType":"string"},{"name":"numberOfDoors","type":"uint8","internalType":"uint8"}],"stateMutability":"view"},{"type":"function","name":"getCarsByMake","inputs":[{"name":"_user","type":"address","internalType":"address"},{"name":"_make","type":"string","internalType":"string"}],"outputs":[{"name":"matchingCars","type":"tuple[]","internalType":"struct GarageManager.Car[]","components":[{"name":"make","type":"string","internalType":"string"},{"name":"model","type":"string","internalType":"string"},{"name":"color","type":"string","internalType":"string"},{"name":"numberOfDoors","type":"uint8","internalType":"uint8"}]},{"name":"indices","type":"uint256[]","internalType":"uint256[]"}],"stateMutability":"view"},{"type":"function","name":"getMyCar","inputs":[{"name":"_index","type":"uint256","internalType":"uint256"}],"outputs":[{"name":"","type":"tuple","internalType":"struct GarageManager.Car","components":[{"name":"make","type":"string","internalType":"string"},{"name":"model","type":"string","internalType":"string"},{"name":"color","type":"string","internalType":"string"},{"name":"numberOfDoors","type":"uint8","internalType":"uint8"}]}],"stateMutability":"view"},{"type":"function","name":"getMyCarCount","inputs":[],"outputs":[{"name":"","type":"uint256","internalType":"uint256"}],"stateMutability":"view"},{"type":"function","name":"getMyCars","inputs":[],"outputs":[{"name":"","type":"tuple[]","internalType":"struct GarageManager.Car[]","components":[{"name":"make","type":"string","internalType":"string"},{"name":"model","type":"string","internalType":"string"},{"name":"color","type":"string","internalType":"string"},{"name":"numberOfDoors","type":"uint8","internalType":"uint8"}]}],"stateMutability":"view"},{"type":"function","name":"getUserCar","inputs":[{"name":"_user","type":"address","internalType":"address"},{"name":"_index","type":"uint256","internalType":"uint256"}],"outputs":[{"name":"","type":"tuple","internalType":"struct GarageManager.Car","components":[{"name":"make","type":"string","internalType":"string"},{"name":"model","type":"string","internalType":"string"},{"name":"color","type":"string","internalType":"string"},{"name":"numberOfDoors","type":"uint8","internalType":"uint8"}]}],"stateMutability":"view"},{"type":"function","name":"getUserCarCount","inputs":[{"name":"_user","type":"address","internalType":"address"}],"outputs":[{"name":"","type":"uint256","internalType":"uint256"}],"stateMutability":"view"},{"type":"function","name":"getUserCarMakes","inputs":[{"name":"_user","type":"address","internalType":"address"}],"outputs":[{"name":"","type":"string[]","internalType":"string[]"}],"stateMutability":"view"},{"type":"function","name":"getUserCars","inputs":[{"name":"_user","type":"address","internalType":"address"}],"outputs":[{"name":"","type":"tuple[]","internalType":"struct GarageManager.Car[]","components":[{"name":"make","type":"string","internalType":"string"},{"name":"model","type":"string","internalType":"string"},{"name":"color","type":"string","internalType":"string"},{"name":"numberOfDoors","type":"uint8","internalType":"uint8"}]}],"stateMutability":"view"},{"type":"function","name":"hasAnyCars","inputs":[{"name":"_user","type":"address","internalType":"address"}],"outputs":[{"name":"","type":"bool","internalType":"bool"}],"stateMutability":"view"},{"type":"function","name":"removeCar","inputs":[{"name":"_index","type":"uint256","internalType":"uint256"}],"outputs":[],"stateMutability":"nonpayable"},{"type":"function","name":"resetMyGarage","inputs":[],"outputs":[],"stateMutability":"nonpayable"},{"type":"function","name":"updateCar","inputs":[{"name":"_index","type":"uint256","internalType":"uint256"},{"name":"_make","type":"string","internalType":"string"},{"name":"_model","type":"string","internalType":"string"},{"name":"_color","type":"string","internalType":"string"},{"name":"_numberOfDoors","type":"uint8","internalType":"uint8"}],"outputs":[],"stateMutability":"nonpayable"},{"type":"event","name":"CarAdded","inputs":[{"name":"owner","type":"address","indexed":true,"internalType":"address"},{"name":"index","type":"uint256","indexed":false,"internalType":"uint256"},{"name":"make","type":"string","indexed":false,"internalType":"string"},{"name":"model","type":"string","indexed":false,"internalType":"string"}],"anonymous":false},{"type":"event","name":"CarUpdated","inputs":[{"name":"owner","type":"address","indexed":true,"internalType":"address"},{"name":"index","type":"uint256","indexed":false,"internalType":"uint256"},{"name":"make","type":"string","indexed":false,"internalType":"string"},{"name":"model","type":"string","indexed":false,"internalType":"string"}],"anonymous":false},{"type":"event","name":"GarageReset","inputs":[{"name":"owner","type":"address","indexed":true,"internalType":"address"},{"name":"carsRemoved","type":"uint256","indexed":false,"internalType":"uint256"}],"anonymous":false},{"type":"error","name":"BadCarIndex","inputs":[{"name":"index","type":"uint256","internalType":"uint256"}]}],"bytecode":{"object":"0x608060405234801561001057600080fd5b50612ec6806100206000396000f3fe608060405234801561001057600080fd5b50600436106100ea5760003560e01c80635373dec31161008c5780637d58b04d116100665780637d58b04d1461025f578063ab4876901461027d578063b43ba30c146102ad578063c2fbbd20146102dd576100ea565b80635373dec3146102095780636a38ddb3146102395780636dcb789614610255576100ea565b8063341fa05d116100c8578063341fa05d1461016c57806337a071211461018a578063380909e8146101ba5780633ecd55a9146101d6576100ea565b806319c98809146100ef5780631feb1bf91461010b5780632698286c1461013c575b600080fd5b610109600480360381019061010491906120d3565b61030d565b005b61012560048036038101906101209190612200565b61049c565b6040516101339291906124db565b60405180910390f35b61015660048036038101906101519190612512565b610950565b604051610163919061253f565b60405180910390f35b610174610bc0565b604051610181919061253f565b60405180910390f35b6101a4600480360381019061019f9190612561565b610e2e565b6040516101b191906125ff565b60405180910390f35b6101d460048036038101906101cf9190612621565b6110fe565b005b6101f060048036038101906101eb91906126dc565b611299565b6040516102009493929190612775565b60405180910390f35b610223600480360381019061021e9190612512565b61148b565b60405161023091906127de565b60405180910390f35b610253600480360381019061024e9190612561565b6114d6565b005b61025d611694565b005b610267611775565b60405161027491906127de565b60405180910390f35b61029760048036038101906102929190612512565b6117be565b6040516102a49190612814565b60405180910390f35b6102c760048036038101906102c291906126dc565b61180b565b6040516102d491906125ff565b60405180910390f35b6102f760048036038101906102f29190612512565b611adc565b60405161030491906128f1565b60405180910390f35b60008060003373ffffffffffffffffffffffffffffffffffffffff1673ffffffffffffffffffffffffffffffffffffffff16815260200190815260200160002090508080549050861061039757856040517f40c901ce00000000000000000000000000000000000000000000000000000000815260040161038e91906127de565b60405180910390fd5b60405180608001604052808681526020018581526020018481526020018360ff168152508187815481106103ce576103cd612913565b5b906000526020600020906004020160008201518160000190816103f19190612b4e565b5060208201518160010190816104079190612b4e565b50604082015181600201908161041d9190612b4e565b5060608201518160030160006101000a81548160ff021916908360ff1602179055509050503373ffffffffffffffffffffffffffffffffffffffff167f08b61da9a2bbafa5e9826894ff1f829c414e9adc83bec4cf716aeae0c68ad30687878760405161048c93929190612c20565b60405180910390a2505050505050565b60608060008060008673ffffffffffffffffffffffffffffffffffffffff1673ffffffffffffffffffffffffffffffffffffffff168152602001908152602001600020805480602002602001604051908101604052809291908181526020016000905b82821015610704578382906000526020600020906004020160405180608001604052908160008201805461053290612971565b80601f016020809104026020016040519081016040528092919081815260200182805461055e90612971565b80156105ab5780601f10610580576101008083540402835291602001916105ab565b820191906000526020600020905b81548152906001019060200180831161058e57829003601f168201915b505050505081526020016001820180546105c490612971565b80601f01602080910402602001604051908101604052809291908181526020018280546105f090612971565b801561063d5780601f106106125761010080835404028352916020019161063d565b820191906000526020600020905b81548152906001019060200180831161062057829003601f168201915b5050505050815260200160028201805461065690612971565b80601f016020809104026020016040519081016040528092919081815260200182805461068290612971565b80156106cf5780601f106106a4576101008083540402835291602001916106cf565b820191906000526020600020905b8154815290600101906020018083116106b257829003601f168201915b505050505081526020016003820160009054906101000a900460ff1660ff1660ff1681525050815260200190600101906104ff565b5050505090506000805b82518110156107aa57856040516020016107289190612ca1565b6040516020818303038152906040528051906020012083828151811061075157610750612913565b5b60200260200101516000015160405160200161076d9190612ca1565b604051602081830303815290604052805190602001200361079757818061079390612ce7565b9250505b80806107a290612ce7565b91505061070e565b508067ffffffffffffffff8111156107c5576107c4611f6f565b5b6040519080825280602002602001820160405280156107fe57816020015b6107eb611e03565b8152602001906001900390816107e35790505b5093508067ffffffffffffffff81111561081b5761081a611f6f565b5b6040519080825280602002602001820160405280156108495781602001602082028036833780820191505090505b5092506000805b8351811015610945578660405160200161086a9190612ca1565b6040516020818303038152906040528051906020012084828151811061089357610892612913565b5b6020026020010151600001516040516020016108af9190612ca1565b6040516020818303038152906040528051906020012003610932578381815181106108dd576108dc612913565b5b60200260200101518683815181106108f8576108f7612913565b5b60200260200101819052508085838151811061091757610916612913565b5b602002602001018181525050818061092e90612ce7565b9250505b808061093d90612ce7565b915050610850565b505050509250929050565b60606000808373ffffffffffffffffffffffffffffffffffffffff1673ffffffffffffffffffffffffffffffffffffffff168152602001908152602001600020805480602002602001604051908101604052809291908181526020016000905b82821015610bb557838290600052602060002090600402016040518060800160405290816000820180546109e390612971565b80601f0160208091040260200160405190810160405280929190818152602001828054610a0f90612971565b8015610a5c5780601f10610a3157610100808354040283529160200191610a5c565b820191906000526020600020905b815481529060010190602001808311610a3f57829003601f168201915b50505050508152602001600182018054610a7590612971565b80601f0160208091040260200160405190810160405280929190818152602001828054610aa190612971565b8015610aee5780601f10610ac357610100808354040283529160200191610aee565b820191906000526020600020905b815481529060010190602001808311610ad157829003601f168201915b50505050508152602001600282018054610b0790612971565b80601f0160208091040260200160405190810160405280929190818152602001828054610b3390612971565b8015610b805780601f10610b5557610100808354040283529160200191610b80565b820191906000526020600020905b815481529060010190602001808311610b6357829003601f168201915b505050505081526020016003820160009054906101000a900460ff1660ff1660ff1681525050815260200190600101906109b0565b505050509050919050565b60606000803373ffffffffffffffffffffffffffffffffffffffff1673ffffffffffffffffffffffffffffffffffffffff168152602001908152602001600020805480602002602001604051908101604052809291908181526020016000905b82821015610e255783829060005260206000209060040201604051806080016040529081600082018054610c5390612971565b80601f0160208091040260200160405190810160405280929190818152602001828054610c7f90612971565b8015610ccc5780601f10610ca157610100808354040283529160200191610ccc565b820191906000526020600020905b815481529060010190602001808311610caf57829003601f168201915b50505050508152602001600182018054610ce590612971565b80601f0160208091040260200160405190810160405280929190818152602001828054610d1190612971565b8015610d5e5780601f10610d3357610100808354040283529160200191610d5e565b820191906000526020600020905b815481529060010190602001808311610d4157829003601f168201915b50505050508152602001600282018054610d7790612971565b80601f0160208091040260200160405190810160405280929190818152602001828054610da390612971565b8015610df05780601f10610dc557610100808354040283529160200191610df0565b820191906000526020600020905b815481529060010190602001808311610dd357829003601f168201915b505050505081526020016003820160009054906101000a900460ff1660ff1660ff168152505081526020019060010190610c20565b50505050905090565b610e36611e03565b6000803373ffffffffffffffffffffffffffffffffffffffff1673ffffffffffffffffffffffffffffffffffffffff168152602001908152602001600020805490508210610ebb57816040517f40c901ce000000000000000000000000000000000000000000000000000000008152600401610eb291906127de565b60405180910390fd5b6000803373ffffffffffffffffffffffffffffffffffffffff1673ffffffffffffffffffffffffffffffffffffffff1681526020019081526020016000208281548110610f0b57610f0a612913565b5b9060005260206000209060040201604051806080016040529081600082018054610f3490612971565b80601f0160208091040260200160405190810160405280929190818152602001828054610f6090612971565b8015610fad5780601f10610f8257610100808354040283529160200191610fad565b820191906000526020600020905b815481529060010190602001808311610f9057829003601f168201915b50505050508152602001600182018054610fc690612971565b80601f0160208091040260200160405190810160405280929190818152602001828054610ff290612971565b801561103f5780601f106110145761010080835404028352916020019161103f565b820191906000526020600020905b81548152906001019060200180831161102257829003601f168201915b5050505050815260200160028201805461105890612971565b80601f016020809104026020016040519081016040528092919081815260200182805461108490612971565b80156110d15780601f106110a6576101008083540402835291602001916110d1565b820191906000526020600020905b8154815290600101906020018083116110b457829003601f168201915b505050505081526020016003820160009054906101000a900460ff1660ff1660ff16815250509050919050565b600060405180608001604052808681526020018581526020018481526020018360ff1681525090506000803373ffffffffffffffffffffffffffffffffffffffff1673ffffffffffffffffffffffffffffffffffffffff16815260200190815260200160002081908060018154018082558091505060019003906000526020600020906004020160009091909190915060008201518160000190816111a39190612b4e565b5060208201518160010190816111b99190612b4e565b5060408201518160020190816111cf9190612b4e565b5060608201518160030160006101000a81548160ff021916908360ff16021790555050503373ffffffffffffffffffffffffffffffffffffffff167fcd7d530872a196e2af1b97aa60c77b7effcefb484477234b546543b98d43baae60016000803373ffffffffffffffffffffffffffffffffffffffff1673ffffffffffffffffffffffffffffffffffffffff168152602001908152602001600020805490506112799190612d2f565b878760405161128a93929190612c20565b60405180910390a25050505050565b600060205281600052604060002081815481106112b557600080fd5b9060005260206000209060040201600091509150508060000180546112d990612971565b80601f016020809104026020016040519081016040528092919081815260200182805461130590612971565b80156113525780601f1061132757610100808354040283529160200191611352565b820191906000526020600020905b81548152906001019060200180831161133557829003601f168201915b50505050509080600101805461136790612971565b80601f016020809104026020016040519081016040528092919081815260200182805461139390612971565b80156113e05780601f106113b5576101008083540402835291602001916113e0565b820191906000526020600020905b8154815290600101906020018083116113c357829003601f168201915b5050505050908060020180546113f590612971565b80601f016020809104026020016040519081016040528092919081815260200182805461142190612971565b801561146e5780601f106114435761010080835404028352916020019161146e565b820191906000526020600020905b81548152906001019060200180831161145157829003601f168201915b5050505050908060030160009054906101000a900460ff16905084565b60008060008373ffffffffffffffffffffffffffffffffffffffff1673ffffffffffffffffffffffffffffffffffffffff168152602001908152602001600020805490509050919050565b60008060003373ffffffffffffffffffffffffffffffffffffffff1673ffffffffffffffffffffffffffffffffffffffff16815260200190815260200160002090508080549050821061156057816040517f40c901ce00000000000000000000000000000000000000000000000000000000815260040161155791906127de565b60405180910390fd5b80600182805490506115729190612d2f565b8154811061158357611582612913565b5b90600052602060002090600402018183815481106115a4576115a3612913565b5b9060005260206000209060040201600082018160000190816115c69190612d79565b50600182018160010190816115db9190612d79565b50600282018160020190816115f09190612d79565b506003820160009054906101000a900460ff168160030160006101000a81548160ff021916908360ff1602179055509050508080548061163357611632612e61565b5b6001900381819060005260206000209060040201600080820160006116589190611e2e565b6001820160006116689190611e2e565b6002820160006116789190611e2e565b6003820160006101000a81549060ff0219169055505090555050565b60008060003373ffffffffffffffffffffffffffffffffffffffff1673ffffffffffffffffffffffffffffffffffffffff1681526020019081526020016000208054905090506000803373ffffffffffffffffffffffffffffffffffffffff1673ffffffffffffffffffffffffffffffffffffffff16815260200190815260200160002060006117249190611e6e565b3373ffffffffffffffffffffffffffffffffffffffff167fbd6053876b4fa1c1b6f8d471a64ca85567a8cd0cee2393c1d485c953c7d4185a8260405161176a91906127de565b60405180910390a250565b60008060003373ffffffffffffffffffffffffffffffffffffffff1673ffffffffffffffffffffffffffffffffffffffff16815260200190815260200160002080549050905090565b6000806000808473ffffffffffffffffffffffffffffffffffffffff1673ffffffffffffffffffffffffffffffffffffffff16815260200190815260200160002080549050119050919050565b611813611e03565b6000808473ffffffffffffffffffffffffffffffffffffffff1673ffffffffffffffffffffffffffffffffffffffff16815260200190815260200160002080549050821061189857816040517f40c901ce00000000000000000000000000000000000000000000000000000000815260040161188f91906127de565b60405180910390fd5b6000808473ffffffffffffffffffffffffffffffffffffffff1673ffffffffffffffffffffffffffffffffffffffff16815260200190815260200160002082815481106118e8576118e7612913565b5b906000526020600020906004020160405180608001604052908160008201805461191190612971565b80601f016020809104026020016040519081016040528092919081815260200182805461193d90612971565b801561198a5780601f1061195f5761010080835404028352916020019161198a565b820191906000526020600020905b81548152906001019060200180831161196d57829003601f168201915b505050505081526020016001820180546119a390612971565b80601f01602080910402602001604051908101604052809291908181526020018280546119cf90612971565b8015611a1c5780601f106119f157610100808354040283529160200191611a1c565b820191906000526020600020905b8154815290600101906020018083116119ff57829003601f168201915b50505050508152602001600282018054611a3590612971565b80601f0160208091040260200160405190810160405280929190818152602001828054611a6190612971565b8015611aae5780601f10611a8357610100808354040283529160200191611aae565b820191906000526020600020905b815481529060010190602001808311611a9157829003601f168201915b505050505081526020016003820160009054906101000a900460ff1660ff1660ff1681525050905092915050565b606060008060008473ffffffffffffffffffffffffffffffffffffffff1673ffffffffffffffffffffffffffffffffffffffff168152602001908152602001600020805480602002602001604051908101604052809291908181526020016000905b82821015611d435783829060005260206000209060040201604051806080016040529081600082018054611b7190612971565b80601f0160208091040260200160405190810160405280929190818152602001828054611b9d90612971565b8015611bea5780601f10611bbf57610100808354040283529160200191611bea565b820191906000526020600020905b815481529060010190602001808311611bcd57829003601f168201915b50505050508152602001600182018054611c0390612971565b80601f0160208091040260200160405190810160405280929190818152602001828054611c2f90612971565b8015611c7c5780601f10611c5157610100808354040283529160200191611c7c565b820191906000526020600020905b815481529060010190602001808311611c5f57829003601f168201915b50505050508152602001600282018054611c9590612971565b80601f0160208091040260200160405190810160405280929190818152602001828054611cc190612971565b8015611d0e5780601f10611ce357610100808354040283529160200191611d0e565b820191906000526020600020905b815481529060010190602001808311611cf157829003601f168201915b505050505081526020016003820160009054906101000a900460ff1660ff1660ff168152505081526020019060010190611b3e565b5050505090506000815167ffffffffffffffff811115611d6657611d65611f6f565b5b604051908082528060200260200182016040528015611d9957816020015b6060815260200190600190039081611d845790505b50905060005b8251811015611df857828181518110611dbb57611dba612913565b5b602002602001015160000151828281518110611dda57611dd9612913565b5b60200260200101819052508080611df090612ce7565b915050611d9f565b508092505050919050565b6040518060800160405280606081526020016060815260200160608152602001600060ff1681525090565b508054611e3a90612971565b6000825580601f10611e4c5750611e6b565b601f016020900490600052602060002090810190611e6a9190611e92565b5b50565b5080546000825560040290600052602060002090810190611e8f9190611eaf565b50565b5b80821115611eab576000816000905550600101611e93565b5090565b5b80821115611f065760008082016000611ec99190611e2e565b600182016000611ed99190611e2e565b600282016000611ee99190611e2e565b6003820160006101000a81549060ff021916905550600401611eb0565b5090565b6000604051905090565b600080fd5b600080fd5b6000819050919050565b611f3181611f1e565b8114611f3c57600080fd5b50565b600081359050611f4e81611f28565b92915050565b600080fd5b600080fd5b6000601f19601f8301169050919050565b7f4e487b7100000000000000000000000000000000000000000000000000000000600052604160045260246000fd5b611fa782611f5e565b810181811067ffffffffffffffff82111715611fc657611fc5611f6f565b5b80604052505050565b6000611fd9611f0a565b9050611fe58282611f9e565b919050565b600067ffffffffffffffff82111561200557612004611f6f565b5b61200e82611f5e565b9050602081019050919050565b82818337600083830152505050565b600061203d61203884611fea565b611fcf565b90508281526020810184848401111561205957612058611f59565b5b61206484828561201b565b509392505050565b600082601f83011261208157612080611f54565b5b813561209184826020860161202a565b91505092915050565b600060ff82169050919050565b6120b08161209a565b81146120bb57600080fd5b50565b6000813590506120cd816120a7565b92915050565b600080600080600060a086880312156120ef576120ee611f14565b5b60006120fd88828901611f3f565b955050602086013567ffffffffffffffff81111561211e5761211d611f19565b5b61212a8882890161206c565b945050604086013567ffffffffffffffff81111561214b5761214a611f19565b5b6121578882890161206c565b935050606086013567ffffffffffffffff81111561217857612177611f19565b5b6121848882890161206c565b9250506080612195888289016120be565b9150509295509295909350565b600073ffffffffffffffffffffffffffffffffffffffff82169050919050565b60006121cd826121a2565b9050919050565b6121dd816121c2565b81146121e857600080fd5b50565b6000813590506121fa816121d4565b92915050565b6000806040838503121561221757612216611f14565b5b6000612225858286016121eb565b925050602083013567ffffffffffffffff81111561224657612245611f19565b5b6122528582860161206c565b9150509250929050565b600081519050919050565b600082825260208201905092915050565b6000819050602082019050919050565b600081519050919050565b600082825260208201905092915050565b60005b838110156122c25780820151818401526020810190506122a7565b60008484015250505050565b60006122d982612288565b6122e38185612293565b93506122f38185602086016122a4565b6122fc81611f5e565b840191505092915050565b6123108161209a565b82525050565b6000608083016000830151848203600086015261233382826122ce565b9150506020830151848203602086015261234d82826122ce565b9150506040830151848203604086015261236782826122ce565b915050606083015161237c6060860182612307565b508091505092915050565b60006123938383612316565b905092915050565b6000602082019050919050565b60006123b38261225c565b6123bd8185612267565b9350836020820285016123cf85612278565b8060005b8581101561240b57848403895281516123ec8582612387565b94506123f78361239b565b925060208a019950506001810190506123d3565b50829750879550505050505092915050565b600081519050919050565b600082825260208201905092915050565b6000819050602082019050919050565b61245281611f1e565b82525050565b60006124648383612449565b60208301905092915050565b6000602082019050919050565b60006124888261241d565b6124928185612428565b935061249d83612439565b8060005b838110156124ce5781516124b58882612458565b97506124c083612470565b9250506001810190506124a1565b5085935050505092915050565b600060408201905081810360008301526124f581856123a8565b90508181036020830152612509818461247d565b90509392505050565b60006020828403121561252857612527611f14565b5b6000612536848285016121eb565b91505092915050565b6000602082019050818103600083015261255981846123a8565b905092915050565b60006020828403121561257757612576611f14565b5b600061258584828501611f3f565b91505092915050565b600060808301600083015184820360008601526125ab82826122ce565b915050602083015184820360208601526125c582826122ce565b915050604083015184820360408601526125df82826122ce565b91505060608301516125f46060860182612307565b508091505092915050565b60006020820190508181036000830152612619818461258e565b905092915050565b6000806000806080858703121561263b5761263a611f14565b5b600085013567ffffffffffffffff81111561265957612658611f19565b5b6126658782880161206c565b945050602085013567ffffffffffffffff81111561268657612685611f19565b5b6126928782880161206c565b935050604085013567ffffffffffffffff8111156126b3576126b2611f19565b5b6126bf8782880161206c565b92505060606126d0878288016120be565b91505092959194509250565b600080604083850312156126f3576126f2611f14565b5b6000612701858286016121eb565b925050602061271285828601611f3f565b9150509250929050565b600082825260208201905092915050565b600061273882612288565b612742818561271c565b93506127528185602086016122a4565b61275b81611f5e565b840191505092915050565b61276f8161209a565b82525050565b6000608082019050818103600083015261278f818761272d565b905081810360208301526127a3818661272d565b905081810360408301526127b7818561272d565b90506127c66060830184612766565b95945050505050565b6127d881611f1e565b82525050565b60006020820190506127f360008301846127cf565b92915050565b60008115159050919050565b61280e816127f9565b82525050565b60006020820190506128296000830184612805565b92915050565b600081519050919050565b600082825260208201905092915050565b6000819050602082019050919050565b600061286783836122ce565b905092915050565b6000602082019050919050565b60006128878261282f565b612891818561283a565b9350836020820285016128a38561284b565b8060005b858110156128df57848403895281516128c0858261285b565b94506128cb8361286f565b925060208a019950506001810190506128a7565b50829750879550505050505092915050565b6000602082019050818103600083015261290b818461287c565b905092915050565b7f4e487b7100000000000000000000000000000000000000000000000000000000600052603260045260246000fd5b7f4e487b7100000000000000000000000000000000000000000000000000000000600052602260045260246000fd5b6000600282049050600182168061298957607f821691505b60208210810361299c5761299b612942565b5b50919050565b60008190508160005260206000209050919050565b60006020601f8301049050919050565b600082821b905092915050565b600060088302612a047fffffffffffffffffffffffffffffffffffffffffffffffffffffffffffffffff826129c7565b612a0e86836129c7565b95508019841693508086168417925050509392505050565b6000819050919050565b6000612a4b612a46612a4184611f1e565b612a26565b611f1e565b9050919050565b6000819050919050565b612a6583612a30565b612a79612a7182612a52565b8484546129d4565b825550505050565b600090565b612a8e612a81565b612a99818484612a5c565b505050565b5b81811015612abd57612ab2600082612a86565b600181019050612a9f565b5050565b601f821115612b0257612ad3816129a2565b612adc846129b7565b81016020851015612aeb578190505b612aff612af7856129b7565b830182612a9e565b50505b505050565b600082821c905092915050565b6000612b2560001984600802612b07565b1980831691505092915050565b6000612b3e8383612b14565b9150826002028217905092915050565b612b5782612288565b67ffffffffffffffff811115612b7057612b6f611f6f565b5b612b7a8254612971565b612b85828285612ac1565b600060209050601f831160018114612bb85760008415612ba6578287015190505b612bb08582612b32565b865550612c18565b601f198416612bc6866129a2565b60005b82811015612bee57848901518255600182019150602085019450602081019050612bc9565b86831015612c0b5784890151612c07601f891682612b14565b8355505b6001600288020188555050505b505050505050565b6000606082019050612c3560008301866127cf565b8181036020830152612c47818561272d565b90508181036040830152612c5b818461272d565b9050949350505050565b600081905092915050565b6000612c7b82612288565b612c858185612c65565b9350612c958185602086016122a4565b80840191505092915050565b6000612cad8284612c70565b915081905092915050565b7f4e487b7100000000000000000000000000000000000000000000000000000000600052601160045260246000fd5b6000612cf282611f1e565b91507fffffffffffffffffffffffffffffffffffffffffffffffffffffffffffffffff8203612d2457612d23612cb8565b5b600182019050919050565b6000612d3a82611f1e565b9150612d4583611f1e565b9250828203905081811115612d5d57612d5c612cb8565b5b92915050565b600081549050612d7281612971565b9050919050565b818103612d87575050612e5f565b612d9082612d63565b67ffffffffffffffff811115612da957612da8611f6f565b5b612db38254612971565b612dbe828285612ac1565b6000601f831160018114612ded5760008415612ddb578287015490505b612de58582612b32565b865550612e58565b601f198416612dfb876129a2565b9650612e06866129a2565b60005b82811015612e2e57848901548255600182019150600185019450602081019050612e09565b86831015612e4b5784890154612e47601f891682612b14565b8355505b6001600288020188555050505b5050505050505b565b7f4e487b7100000000000000000000000000000000000000000000000000000000600052603160045260246000fdfea26469706673582212202515254edda5d7f5b4a0307fed00ffc9662a83e792021e9f3b9c9db86622a3bf64736f6c63430008130033","linkReferences":{}},"methodIdentifiers":{"addCar(string,string,string,uint8)":"380909e8","garage(address,uint256)":"3ecd55a9","getCarsByMake(address,string)":"1feb1bf9","getMyCar(uint256)":"37a07121","getMyCarCount()":"7d58b04d","getMyCars()":"341fa05d","getUserCar(address,uint256)":"b43ba30c","getUserCarCount(address)":"5373dec3","getUserCarMakes(address)":"c2fbbd20","getUserCars(address)":"2698286c","hasAnyCars(address)":"ab487690","removeCar(uint256)":"6a38ddb3","resetMyGarage()":"6dcb7896","updateCar(uint256,string,string,string,uint8)":"19c98809"},"id":21}