{"abi":[{"type":"function","name":"addCar","inputs":[{"name":"_make","type":"string","internalType":"string"},{"name":"_model","type":"string","internalType":"string"},{"name":"_color","type":"string","internalType":"string"},{"name":"_numberOfDoors","type":"uint8","internalType":"uint8"}],"outputs":[],"stateMutability":"nonpayable"},{"type":"function","name":"garage","inputs":[{"name":"","type":"address","internalType":"address"},{"name":"","type":"uint256","internalType":"uint256"}],"outputs":[{"name":"numberOfDoors","type":"uint8","internalType":"uint8"},{"name":"make","type":"string","internalType":"string"},{"name":"model","type":"string","internalType":"string"},{"name":"color","type":"string","internalType":"string"}],"stateMutability":"view"},{"type":"function","name":"getCarsByMake","inputs":[{"name":"_user","type":"address","internalType":"address"},{"name":"_make","type":"string","internalType":"string"}],"outputs":[{"name":"matchingCars","type":"tuple[]","internalType":"struct GarageManager.Car[]","components":[{"name":"numberOfDoors","type":"uint8","internalType":"uint8"},{"name":"make","type":"string","internalType":"string"},{"name":"model","type":"string","internalType":"string"},{"name":"color","type":"string","internalType":"string"}]},{"name":"indices","type":"uint256[]","internalType":"uint256[]"}],"stateMutability":"view"},{"type":"function","name":"getMyCar","inputs":[{"name":"_index","type":"uint256","internalType":"uint256"}],"outputs":[{"name":"","type":"tuple","internalType":"struct GarageManager.Car","components":[{"name":"numberOfDoors","type":"uint8","internalType":"uint8"},{"name":"make","type":"string","internalType":"string"},{"name":"model","type":"string","internalType":"string"},{"name":"color","type":"string","internalType":"string"}]}],"stateMutability":"view"},{"type":"function","name":"getMyCarCount","inputs":[],"outputs":[{"name":"","type":"uint256","internalType":"uint256"}],"stateMutability":"view"},{"type":"function","name":"getMyCars","inputs":[],"outputs":[{"name":"","type":"tuple[]","internalType":"struct GarageManager.Car[]","components":[{"name":"numberOfDoors","type":"uint8","internalType":"uint8"},{"name":"make","type":"string","internalType":"string"},{"name":"model","type":"string","internalType":"string"},{"name":"color","type":"string","internalType":"string"}]}],"stateMutability":"view"},{"type":"function","name":"getUserCar","inputs":[{"name":"_user","type":"address","internalType":"address"},{"name":"_index","type":"uint256","internalType":"uint256"}],"outputs":[{"name":"","type":"tuple","internalType":"struct GarageManager.Car","components":[{"name":"numberOfDoors","type":"uint8","internalType":"uint8"},{"name":"make","type":"string","internalType":"string"},{"name":"model","type":"string","internalType":"string"},{"name":"color","type":"string","internalType":"string"}]}],"stateMutability":"view"},{"type":"function","name":"getUserCarCount","inputs":[{"name":"_user","type":"address","internalType":"address"}],"outputs":[{"name":"","type":"uint256","internalType":"uint256"}],"stateMutability":"view"},{"type":"function","name":"getUserCarMakes","inputs":[{"name":"_user","type":"address","internalType":"address"}],"outputs":[{"name":"","type":"string[]","internalType":"string[]"}],"stateMutability":"view"},{"type":"function","name":"getUserCars","inputs":[{"name":"_user","type":"address","internalType":"address"}],"outputs":[{"name":"","type":"tuple[]","internalType":"struct GarageManager.Car[]","components":[{"name":"numberOfDoors","type":"uint8","internalType":"uint8"},{"name":"make","type":"string","internalType":"string"},{"name":"model","type":"string","internalType":"string"},{"name":"color","type":"string","internalType":"string"}]}],"stateMutability":"view"},{"type":"function","name":"hasAnyCars","inputs":[{"name":"_user","type":"address","internalType":"address"}],"outputs":[{"name":"","type":"bool","internalType":"bool"}],"stateMutability":"view"},{"type":"function","name":"removeCar","inputs":[{"name":"_index","type":"uint256","internalType":"uint256"}],"outputs":[],"stateMutability":"nonpayable"},{"type":"function","name":"resetMyGarage","inputs":[],"outputs":[],"stateMutability":"nonpayable"},{"type":"function","name":"updateCar","inputs":[{"name":"_index","type":"uint256","internalType":"uint256"},{"name":"_make","type":"string","internalType":"string"},{"name":"_model","type":"string","internalType":"string"},{"name":"_color","type":"string","internalType":"string"},{"name":"_numberOfDoors","type":"uint8","internalType":"uint8"}],"outputs":[],"stateMutability":"nonpayable"},{"type":"event","name":"CarAdded","inputs":[{"name":"owner","type":"address","indexed":true,"internalType":"address"},{"name":"index","type":"uint256","indexed":false,"internalType":"uint256"},{"name":"make","type":"string","indexed":false,"internalType":"string"},{"name":"model","type":"string","indexed":false,"internalType":"string"}],"anonymous":false},{"type":"event","name":"CarUpdated","inputs":[{"name":"owner","type":"address","indexed":true,"internalType":"address"},{"name":"index","type":"uint256","indexed":false,"internalType":"uint256"},{"name":"make","type":"string","indexed":false,"internalType":"string"},{"name":"model","type":"string","indexed":false,"internalType":"string"}],"anonymous":false},{"type":"event","name":"GarageReset","inputs":[{"name":"owner","type":"address","indexed":true,"internalType":"address"},{"name":"carsRemoved","type":"uint256","indexed":false,"internalType":"uint256"}],"anonymous":false},{"type":"error","name":"BadCarIndex","inputs":[{"name":"index","type":"uint256","internalType":"uint256"}]}],"bytecode":{"object":"0x608060405234801561000f575f80fd5b50612d9f8061001d5f395ff3fe608060405234801561000f575f80fd5b50600436106100e8575f3560e01c80635373dec31161008a5780637d58b04d116100645780637d58b04d1461025c578063ab4876901461027a578063b43ba30c146102aa578063c2fbbd20146102da576100e8565b80635373dec3146102065780636a38ddb3146102365780636dcb789614610252576100e8565b8063341fa05d116100c6578063341fa05d1461016957806337a0712114610187578063380909e8146101b75780633ecd55a9146101d3576100e8565b806319c98809146100ec5780631feb1bf9146101085780632698286c14610139575b5f80fd5b61010660048036038101906101019190612016565b61030a565b005b610122600480360381019061011d919061213b565b610491565b6040516101309291906123fe565b60405180910390f35b610153600480360381019061014e9190612433565b610935565b604051610160919061245e565b60405180910390f35b610171610b98565b60405161017e919061245e565b60405180910390f35b6101a1600480360381019061019c919061247e565b610df9565b6040516101ae9190612517565b60405180910390f35b6101d160048036038101906101cc9190612537565b6110bb565b005b6101ed60048036038101906101e891906125ef565b61124b565b6040516101fd9493929190612684565b60405180910390f35b610220600480360381019061021b9190612433565b61142e565b60405161022d91906126eb565b60405180910390f35b610250600480360381019061024b919061247e565b611476565b005b61025a611622565b005b6102646116fd565b60405161027191906126eb565b60405180910390f35b610294600480360381019061028f9190612433565b611743565b6040516102a1919061271e565b60405180910390f35b6102c460048036038101906102bf91906125ef565b61178d565b6040516102d19190612517565b60405180910390f35b6102f460048036038101906102ef9190612433565b611a50565b60405161030191906127f2565b60405180910390f35b5f805f3373ffffffffffffffffffffffffffffffffffffffff1673ffffffffffffffffffffffffffffffffffffffff1681526020019081526020015f2090508080549050861061039157856040517f40c901ce00000000000000000000000000000000000000000000000000000000815260040161038891906126eb565b60405180910390fd5b60405180608001604052808360ff168152602001868152602001858152602001848152508187815481106103c8576103c7612812565b5b905f5260205f2090600402015f820151815f015f6101000a81548160ff021916908360ff16021790555060208201518160010190816104079190612a39565b50604082015181600201908161041d9190612a39565b5060608201518160030190816104339190612a39565b509050503373ffffffffffffffffffffffffffffffffffffffff167f08b61da9a2bbafa5e9826894ff1f829c414e9adc83bec4cf716aeae0c68ad30687878760405161048193929190612b08565b60405180910390a2505050505050565b6060805f805f8673ffffffffffffffffffffffffffffffffffffffff1673ffffffffffffffffffffffffffffffffffffffff1681526020019081526020015f20805480602002602001604051908101604052809291908181526020015f905b828210156106eb578382905f5260205f2090600402016040518060800160405290815f82015f9054906101000a900460ff1660ff1660ff16815260200160018201805461053c9061286c565b80601f01602080910402602001604051908101604052809291908181526020018280546105689061286c565b80156105b35780601f1061058a576101008083540402835291602001916105b3565b820191905f5260205f20905b81548152906001019060200180831161059657829003601f168201915b505050505081526020016002820180546105cc9061286c565b80601f01602080910402602001604051908101604052809291908181526020018280546105f89061286c565b80156106435780601f1061061a57610100808354040283529160200191610643565b820191905f5260205f20905b81548152906001019060200180831161062657829003601f168201915b5050505050815260200160038201805461065c9061286c565b80601f01602080910402602001604051908101604052809291908181526020018280546106889061286c565b80156106d35780601f106106aa576101008083540402835291602001916106d3565b820191905f5260205f20905b8154815290600101906020018083116106b657829003601f168201915b505050505081525050815260200190600101906104f0565b5050505090505f805b8251811015610790578560405160200161070e9190612b85565b6040516020818303038152906040528051906020012083828151811061073757610736612812565b5b6020026020010151602001516040516020016107539190612b85565b604051602081830303815290604052805190602001200361077d57818061077990612bc8565b9250505b808061078890612bc8565b9150506106f4565b508067ffffffffffffffff8111156107ab576107aa611ebc565b5b6040519080825280602002602001820160405280156107e457816020015b6107d1611d67565b8152602001906001900390816107c95790505b5093508067ffffffffffffffff81111561080157610800611ebc565b5b60405190808252806020026020018201604052801561082f5781602001602082028036833780820191505090505b5092505f805b835181101561092a578660405160200161084f9190612b85565b6040516020818303038152906040528051906020012084828151811061087857610877612812565b5b6020026020010151602001516040516020016108949190612b85565b6040516020818303038152906040528051906020012003610917578381815181106108c2576108c1612812565b5b60200260200101518683815181106108dd576108dc612812565b5b6020026020010181905250808583815181106108fc576108fb612812565b5b602002602001018181525050818061091390612bc8565b9250505b808061092290612bc8565b915050610835565b505050509250929050565b60605f808373ffffffffffffffffffffffffffffffffffffffff1673ffffffffffffffffffffffffffffffffffffffff1681526020019081526020015f20805480602002602001604051908101604052809291908181526020015f905b82821015610b8d578382905f5260205f2090600402016040518060800160405290815f82015f9054906101000a900460ff1660ff1660ff1681526020016001820180546109de9061286c565b80601f0160208091040260200160405190810160405280929190818152602001828054610a0a9061286c565b8015610a555780601f10610a2c57610100808354040283529160200191610a55565b820191905f5260205f20905b815481529060010190602001808311610a3857829003601f168201915b50505050508152602001600282018054610a6e9061286c565b80601f0160208091040260200160405190810160405280929190818152602001828054610a9a9061286c565b8015610ae55780601f10610abc57610100808354040283529160200191610ae5565b820191905f5260205f20905b815481529060010190602001808311610ac857829003601f168201915b50505050508152602001600382018054610afe9061286c565b80601f0160208091040260200160405190810160405280929190818152602001828054610b2a9061286c565b8015610b755780601f10610b4c57610100808354040283529160200191610b75565b820191905f5260205f20905b815481529060010190602001808311610b5857829003601f168201915b50505050508152505081526020019060010190610992565b505050509050919050565b60605f803373ffffffffffffffffffffffffffffffffffffffff1673ffffffffffffffffffffffffffffffffffffffff1681526020019081526020015f20805480602002602001604051908101604052809291908181526020015f905b82821015610df0578382905f5260205f2090600402016040518060800160405290815f82015f9054906101000a900460ff1660ff1660ff168152602001600182018054610c419061286c565b80601f0160208091040260200160405190810160405280929190818152602001828054610c6d9061286c565b8015610cb85780601f10610c8f57610100808354040283529160200191610cb8565b820191905f5260205f20905b815481529060010190602001808311610c9b57829003601f168201915b50505050508152602001600282018054610cd19061286c565b80601f0160208091040260200160405190810160405280929190818152602001828054610cfd9061286c565b8015610d485780601f10610d1f57610100808354040283529160200191610d48565b820191905f5260205f20905b815481529060010190602001808311610d2b57829003601f168201915b50505050508152602001600382018054610d619061286c565b80601f0160208091040260200160405190810160405280929190818152602001828054610d8d9061286c565b8015610dd85780601f10610daf57610100808354040283529160200191610dd8565b820191905f5260205f20905b815481529060010190602001808311610dbb57829003601f168201915b50505050508152505081526020019060010190610bf5565b50505050905090565b610e01611d67565b5f803373ffffffffffffffffffffffffffffffffffffffff1673ffffffffffffffffffffffffffffffffffffffff1681526020019081526020015f20805490508210610e8457816040517f40c901ce000000000000000000000000000000000000000000000000000000008152600401610e7b91906126eb565b60405180910390fd5b5f803373ffffffffffffffffffffffffffffffffffffffff1673ffffffffffffffffffffffffffffffffffffffff1681526020019081526020015f208281548110610ed257610ed1612812565b5b905f5260205f2090600402016040518060800160405290815f82015f9054906101000a900460ff1660ff1660ff168152602001600182018054610f149061286c565b80601f0160208091040260200160405190810160405280929190818152602001828054610f409061286c565b8015610f8b5780601f10610f6257610100808354040283529160200191610f8b565b820191905f5260205f20905b815481529060010190602001808311610f6e57829003601f168201915b50505050508152602001600282018054610fa49061286c565b80601f0160208091040260200160405190810160405280929190818152602001828054610fd09061286c565b801561101b5780601f10610ff25761010080835404028352916020019161101b565b820191905f5260205f20905b815481529060010190602001808311610ffe57829003601f168201915b505050505081526020016003820180546110349061286c565b80601f01602080910402602001604051908101604052809291908181526020018280546110609061286c565b80156110ab5780601f10611082576101008083540402835291602001916110ab565b820191905f5260205f20905b81548152906001019060200180831161108e57829003601f168201915b5050505050815250509050919050565b5f60405180608001604052808360ff1681526020018681526020018581526020018481525090505f803373ffffffffffffffffffffffffffffffffffffffff1673ffffffffffffffffffffffffffffffffffffffff1681526020019081526020015f2081908060018154018082558091505060019003905f5260205f2090600402015f909190919091505f820151815f015f6101000a81548160ff021916908360ff16021790555060208201518160010190816111789190612a39565b50604082015181600201908161118e9190612a39565b5060608201518160030190816111a49190612a39565b5050503373ffffffffffffffffffffffffffffffffffffffff167fcd7d530872a196e2af1b97aa60c77b7effcefb484477234b546543b98d43baae60015f803373ffffffffffffffffffffffffffffffffffffffff1673ffffffffffffffffffffffffffffffffffffffff1681526020019081526020015f208054905061122b9190612c0f565b878760405161123c93929190612b08565b60405180910390a25050505050565b5f602052815f5260405f208181548110611263575f80fd5b905f5260205f2090600402015f9150915050805f015f9054906101000a900460ff16908060010180546112959061286c565b80601f01602080910402602001604051908101604052809291908181526020018280546112c19061286c565b801561130c5780601f106112e35761010080835404028352916020019161130c565b820191905f5260205f20905b8154815290600101906020018083116112ef57829003601f168201915b5050505050908060020180546113219061286c565b80601f016020809104026020016040519081016040528092919081815260200182805461134d9061286c565b80156113985780601f1061136f57610100808354040283529160200191611398565b820191905f5260205f20905b81548152906001019060200180831161137b57829003601f168201915b5050505050908060030180546113ad9061286c565b80601f01602080910402602001604051908101604052809291908181526020018280546113d99061286c565b80156114245780601f106113fb57610100808354040283529160200191611424565b820191905f5260205f20905b81548152906001019060200180831161140757829003601f168201915b5050505050905084565b5f805f8373ffffffffffffffffffffffffffffffffffffffff1673ffffffffffffffffffffffffffffffffffffffff1681526020019081526020015f20805490509050919050565b5f805f3373ffffffffffffffffffffffffffffffffffffffff1673ffffffffffffffffffffffffffffffffffffffff1681526020019081526020015f209050808054905082106114fd57816040517f40c901ce0000000000000000000000000000000000000000000000000000000081526004016114f491906126eb565b60405180910390fd5b806001828054905061150f9190612c0f565b815481106115205761151f612812565b5b905f5260205f20906004020181838154811061153f5761153e612812565b5b905f5260205f2090600402015f82015f9054906101000a900460ff16815f015f6101000a81548160ff021916908360ff160217905550600182018160010190816115899190612c57565b506002820181600201908161159e9190612c57565b50600382018160030190816115b39190612c57565b50905050808054806115c8576115c7612d3c565b5b600190038181905f5260205f2090600402015f8082015f6101000a81549060ff0219169055600182015f6115fc9190611d91565b600282015f61160b9190611d91565b600382015f61161a9190611d91565b505090555050565b5f805f3373ffffffffffffffffffffffffffffffffffffffff1673ffffffffffffffffffffffffffffffffffffffff1681526020019081526020015f208054905090505f803373ffffffffffffffffffffffffffffffffffffffff1673ffffffffffffffffffffffffffffffffffffffff1681526020019081526020015f205f6116ac9190611dce565b3373ffffffffffffffffffffffffffffffffffffffff167fbd6053876b4fa1c1b6f8d471a64ca85567a8cd0cee2393c1d485c953c7d4185a826040516116f291906126eb565b60405180910390a250565b5f805f3373ffffffffffffffffffffffffffffffffffffffff1673ffffffffffffffffffffffffffffffffffffffff1681526020019081526020015f2080549050905090565b5f805f808473ffffffffffffffffffffffffffffffffffffffff1673ffffffffffffffffffffffffffffffffffffffff1681526020019081526020015f2080549050119050919050565b611795611d67565b5f808473ffffffffffffffffffffffffffffffffffffffff1673ffffffffffffffffffffffffffffffffffffffff1681526020019081526020015f2080549050821061181857816040517f40c901ce00000000000000000000000000000000000000000000000000000000815260040161180f91906126eb565b60405180910390fd5b5f808473ffffffffffffffffffffffffffffffffffffffff1673ffffffffffffffffffffffffffffffffffffffff1681526020019081526020015f20828154811061186657611865612812565b5b905f5260205f2090600402016040518060800160405290815f82015f9054906101000a900460ff1660ff1660ff1681526020016001820180546118a89061286c565b80601f01602080910402602001604051908101604052809291908181526020018280546118d49061286c565b801561191f5780601f106118f65761010080835404028352916020019161191f565b820191905f5260205f20905b81548152906001019060200180831161190257829003601f168201915b505050505081526020016002820180546119389061286c565b80601f01602080910402602001604051908101604052809291908181526020018280546119649061286c565b80156119af5780601f10611986576101008083540402835291602001916119af565b820191905f5260205f20905b81548152906001019060200180831161199257829003601f168201915b505050505081526020016003820180546119c89061286c565b80601f01602080910402602001604051908101604052809291908181526020018280546119f49061286c565b8015611a3f5780601f10611a1657610100808354040283529160200191611a3f565b820191905f5260205f20905b815481529060010190602001808311611a2257829003601f168201915b505050505081525050905092915050565b60605f805f8473ffffffffffffffffffffffffffffffffffffffff1673ffffffffffffffffffffffffffffffffffffffff1681526020019081526020015f20805480602002602001604051908101604052809291908181526020015f905b82821015611ca9578382905f5260205f2090600402016040518060800160405290815f82015f9054906101000a900460ff1660ff1660ff168152602001600182018054611afa9061286c565b80601f0160208091040260200160405190810160405280929190818152602001828054611b269061286c565b8015611b715780601f10611b4857610100808354040283529160200191611b71565b820191905f5260205f20905b815481529060010190602001808311611b5457829003601f168201915b50505050508152602001600282018054611b8a9061286c565b80601f0160208091040260200160405190810160405280929190818152602001828054611bb69061286c565b8015611c015780601f10611bd857610100808354040283529160200191611c01565b820191905f5260205f20905b815481529060010190602001808311611be457829003601f168201915b50505050508152602001600382018054611c1a9061286c565b80601f0160208091040260200160405190810160405280929190818152602001828054611c469061286c565b8015611c915780601f10611c6857610100808354040283529160200191611c91565b820191905f5260205f20905b815481529060010190602001808311611c7457829003601f168201915b50505050508152505081526020019060010190611aae565b5050505090505f815167ffffffffffffffff811115611ccb57611cca611ebc565b5b604051908082528060200260200182016040528015611cfe57816020015b6060815260200190600190039081611ce95790505b5090505f5b8251811015611d5c57828181518110611d1f57611d1e612812565b5b602002602001015160200151828281518110611d3e57611d3d612812565b5b60200260200101819052508080611d5490612bc8565b915050611d03565b508092505050919050565b60405180608001604052805f60ff1681526020016060815260200160608152602001606081525090565b508054611d9d9061286c565b5f825580601f10611dae5750611dcb565b601f0160209004905f5260205f2090810190611dca9190611def565b5b50565b5080545f8255600402905f5260205f2090810190611dec9190611e0a565b50565b5b80821115611e06575f815f905550600101611df0565b5090565b5b80821115611e5c575f8082015f6101000a81549060ff0219169055600182015f611e359190611d91565b600282015f611e449190611d91565b600382015f611e539190611d91565b50600401611e0b565b5090565b5f604051905090565b5f80fd5b5f80fd5b5f819050919050565b611e8381611e71565b8114611e8d575f80fd5b50565b5f81359050611e9e81611e7a565b92915050565b5f80fd5b5f80fd5b5f601f19601f8301169050919050565b7f4e487b71000000000000000000000000000000000000000000000000000000005f52604160045260245ffd5b611ef282611eac565b810181811067ffffffffffffffff82111715611f1157611f10611ebc565b5b80604052505050565b5f611f23611e60565b9050611f2f8282611ee9565b919050565b5f67ffffffffffffffff821115611f4e57611f4d611ebc565b5b611f5782611eac565b9050602081019050919050565b828183375f83830152505050565b5f611f84611f7f84611f34565b611f1a565b905082815260208101848484011115611fa057611f9f611ea8565b5b611fab848285611f64565b509392505050565b5f82601f830112611fc757611fc6611ea4565b5b8135611fd7848260208601611f72565b91505092915050565b5f60ff82169050919050565b611ff581611fe0565b8114611fff575f80fd5b50565b5f8135905061201081611fec565b92915050565b5f805f805f60a0868803121561202f5761202e611e69565b5b5f61203c88828901611e90565b955050602086013567ffffffffffffffff81111561205d5761205c611e6d565b5b61206988828901611fb3565b945050604086013567ffffffffffffffff81111561208a57612089611e6d565b5b61209688828901611fb3565b935050606086013567ffffffffffffffff8111156120b7576120b6611e6d565b5b6120c388828901611fb3565b92505060806120d488828901612002565b9150509295509295909350565b5f73ffffffffffffffffffffffffffffffffffffffff82169050919050565b5f61210a826120e1565b9050919050565b61211a81612100565b8114612124575f80fd5b50565b5f8135905061213581612111565b92915050565b5f806040838503121561215157612150611e69565b5b5f61215e85828601612127565b925050602083013567ffffffffffffffff81111561217f5761217e611e6d565b5b61218b85828601611fb3565b9150509250929050565b5f81519050919050565b5f82825260208201905092915050565b5f819050602082019050919050565b6121c781611fe0565b82525050565b5f81519050919050565b5f82825260208201905092915050565b5f5b838110156122045780820151818401526020810190506121e9565b5f8484015250505050565b5f612219826121cd565b61222381856121d7565b93506122338185602086016121e7565b61223c81611eac565b840191505092915050565b5f608083015f83015161225c5f8601826121be565b5060208301518482036020860152612274828261220f565b9150506040830151848203604086015261228e828261220f565b915050606083015184820360608601526122a8828261220f565b9150508091505092915050565b5f6122c08383612247565b905092915050565b5f602082019050919050565b5f6122de82612195565b6122e8818561219f565b9350836020820285016122fa856121af565b805f5b85811015612335578484038952815161231685826122b5565b9450612321836122c8565b925060208a019950506001810190506122fd565b50829750879550505050505092915050565b5f81519050919050565b5f82825260208201905092915050565b5f819050602082019050919050565b61237981611e71565b82525050565b5f61238a8383612370565b60208301905092915050565b5f602082019050919050565b5f6123ac82612347565b6123b68185612351565b93506123c183612361565b805f5b838110156123f15781516123d8888261237f565b97506123e383612396565b9250506001810190506123c4565b5085935050505092915050565b5f6040820190508181035f83015261241681856122d4565b9050818103602083015261242a81846123a2565b90509392505050565b5f6020828403121561244857612447611e69565b5b5f61245584828501612127565b91505092915050565b5f6020820190508181035f83015261247681846122d4565b905092915050565b5f6020828403121561249357612492611e69565b5b5f6124a084828501611e90565b91505092915050565b5f608083015f8301516124be5f8601826121be565b50602083015184820360208601526124d6828261220f565b915050604083015184820360408601526124f0828261220f565b9150506060830151848203606086015261250a828261220f565b9150508091505092915050565b5f6020820190508181035f83015261252f81846124a9565b905092915050565b5f805f806080858703121561254f5761254e611e69565b5b5f85013567ffffffffffffffff81111561256c5761256b611e6d565b5b61257887828801611fb3565b945050602085013567ffffffffffffffff81111561259957612598611e6d565b5b6125a587828801611fb3565b935050604085013567ffffffffffffffff8111156125c6576125c5611e6d565b5b6125d287828801611fb3565b92505060606125e387828801612002565b91505092959194509250565b5f806040838503121561260557612604611e69565b5b5f61261285828601612127565b925050602061262385828601611e90565b9150509250929050565b61263681611fe0565b82525050565b5f82825260208201905092915050565b5f612656826121cd565b612660818561263c565b93506126708185602086016121e7565b61267981611eac565b840191505092915050565b5f6080820190506126975f83018761262d565b81810360208301526126a9818661264c565b905081810360408301526126bd818561264c565b905081810360608301526126d1818461264c565b905095945050505050565b6126e581611e71565b82525050565b5f6020820190506126fe5f8301846126dc565b92915050565b5f8115159050919050565b61271881612704565b82525050565b5f6020820190506127315f83018461270f565b92915050565b5f81519050919050565b5f82825260208201905092915050565b5f819050602082019050919050565b5f61276b838361220f565b905092915050565b5f602082019050919050565b5f61278982612737565b6127938185612741565b9350836020820285016127a585612751565b805f5b858110156127e057848403895281516127c18582612760565b94506127cc83612773565b925060208a019950506001810190506127a8565b50829750879550505050505092915050565b5f6020820190508181035f83015261280a818461277f565b905092915050565b7f4e487b71000000000000000000000000000000000000000000000000000000005f52603260045260245ffd5b7f4e487b71000000000000000000000000000000000000000000000000000000005f52602260045260245ffd5b5f600282049050600182168061288357607f821691505b6020821081036128965761289561283f565b5b50919050565b5f819050815f5260205f209050919050565b5f6020601f8301049050919050565b5f82821b905092915050565b5f600883026128f87fffffffffffffffffffffffffffffffffffffffffffffffffffffffffffffffff826128bd565b61290286836128bd565b95508019841693508086168417925050509392505050565b5f819050919050565b5f61293d61293861293384611e71565b61291a565b611e71565b9050919050565b5f819050919050565b61295683612923565b61296a61296282612944565b8484546128c9565b825550505050565b5f90565b61297e612972565b61298981848461294d565b505050565b5b818110156129ac576129a15f82612976565b60018101905061298f565b5050565b601f8211156129f1576129c28161289c565b6129cb846128ae565b810160208510156129da578190505b6129ee6129e6856128ae565b83018261298e565b50505b505050565b5f82821c905092915050565b5f612a115f19846008026129f6565b1980831691505092915050565b5f612a298383612a02565b9150826002028217905092915050565b612a42826121cd565b67ffffffffffffffff811115612a5b57612a5a611ebc565b5b612a65825461286c565b612a708282856129b0565b5f60209050601f831160018114612aa1575f8415612a8f578287015190505b612a998582612a1e565b865550612b00565b601f198416612aaf8661289c565b5f5b82811015612ad657848901518255600182019150602085019450602081019050612ab1565b86831015612af35784890151612aef601f891682612a02565b8355505b6001600288020188555050505b505050505050565b5f606082019050612b1b5f8301866126dc565b8181036020830152612b2d818561264c565b90508181036040830152612b41818461264c565b9050949350505050565b5f81905092915050565b5f612b5f826121cd565b612b698185612b4b565b9350612b798185602086016121e7565b80840191505092915050565b5f612b908284612b55565b915081905092915050565b7f4e487b71000000000000000000000000000000000000000000000000000000005f52601160045260245ffd5b5f612bd282611e71565b91507fffffffffffffffffffffffffffffffffffffffffffffffffffffffffffffffff8203612c0457612c03612b9b565b5b600182019050919050565b5f612c1982611e71565b9150612c2483611e71565b9250828203905081811115612c3c57612c3b612b9b565b5b92915050565b5f81549050612c508161286c565b9050919050565b818103612c65575050612d3a565b612c6e82612c42565b67ffffffffffffffff811115612c8757612c86611ebc565b5b612c91825461286c565b612c9c8282856129b0565b5f601f831160018114612cc9575f8415612cb7578287015490505b612cc18582612a1e565b865550612d33565b601f198416612cd78761289c565b9650612ce28661289c565b5f5b82811015612d0957848901548255600182019150600185019450602081019050612ce4565b86831015612d265784890154612d22601f891682612a02565b8355505b6001600288020188555050505b5050505050505b565b7f4e487b71000000000000000000000000000000000000000000000000000000005f52603160045260245ffdfea26469706673582212207a07a5d4ec30c9f05f855d02905cbb7d0d7ed823db61b6098847e152ee9308d764736f6c63430008140033","linkReferences":{}},"methodIdentifiers":{"addCar(string,string,string,uint8)":"380909e8","garage(address,uint256)":"3ecd55a9","getCarsByMake(address,string)":"1feb1bf9","getMyCar(uint256)":"37a07121","getMyCarCount()":"7d58b04d","getMyCars()":"341fa05d","getUserCar(address,uint256)":"b43ba30c","getUserCarCount(address)":"5373dec3","getUserCarMakes(address)":"c2fbbd20","getUserCars(address)":"2698286c","hasAnyCars(address)":"ab487690","removeCar(uint256)":"6a38ddb3","resetMyGarage()":"6dcb7896","updateCar(uint256,string,string,string,uint8)":"19c98809"},"id":19}