{"abi":[{"type":"function","name":"afterY2K","inputs":[],"outputs":[{"name":"recentTimestamps","type":"uint256[]","internalType":"uint256[]"},{"name":"recentSenders","type":"address[]","internalType":"address[]"}],"stateMutability":"view"},{"type":"function","name":"appendToNumbers","inputs":[{"name":"_toAppend","type":"uint256[]","internalType":"uint256[]"}],"outputs":[],"stateMutability":"nonpayable"},{"type":"function","name":"getNumbers","inputs":[],"outputs":[{"name":"","type":"uint256[]","internalType":"uint256[]"}],"stateMutability":"view"},{"type":"function","name":"getNumbersLength","inputs":[],"outputs":[{"name":"","type":"uint256","internalType":"uint256"}],"stateMutability":"view"},{"type":"function","name":"getSenders","inputs":[],"outputs":[{"name":"","type":"address[]","internalType":"address[]"}],"stateMutability":"view"},{"type":"function","name":"getSendersLength","inputs":[],"outputs":[{"name":"","type":"uint256","internalType":"uint256"}],"stateMutability":"view"},{"type":"function","name":"getTimestamps","inputs":[],"outputs":[{"name":"","type":"uint256[]","internalType":"uint256[]"}],"stateMutability":"view"},{"type":"function","name":"getTimestampsLength","inputs":[],"outputs":[{"name":"","type":"uint256","internalType":"uint256"}],"stateMutability":"view"},{"type":"function","name":"numbers","inputs":[{"name":"","type":"uint256","internalType":"uint256"}],"outputs":[{"name":"","type":"uint256","internalType":"uint256"}],"stateMutability":"view"},{"type":"function","name":"resetNumbers","inputs":[],"outputs":[],"stateMutability":"nonpayable"},{"type":"function","name":"resetSenders","inputs":[],"outputs":[],"stateMutability":"nonpayable"},{"type":"function","name":"resetTimestamps","inputs":[],"outputs":[],"stateMutability":"nonpayable"},{"type":"function","name":"saveTimestamp","inputs":[{"name":"_unixTimestamp","type":"uint256","internalType":"uint256"}],"outputs":[],"stateMutability":"nonpayable"},{"type":"function","name":"senders","inputs":[{"name":"","type":"uint256","internalType":"uint256"}],"outputs":[{"name":"","type":"address","internalType":"address"}],"stateMutability":"view"},{"type":"function","name":"timestamps","inputs":[{"name":"","type":"uint256","internalType":"uint256"}],"outputs":[{"name":"","type":"uint256","internalType":"uint256"}],"stateMutability":"view"}],"bytecode":{"object":"0x6080604052604051806101400160405280600160ff168152602001600260ff168152602001600360ff168152602001600460ff168152602001600560ff168152602001600660ff168152602001600760ff168152602001600860ff168152602001600960ff168152602001600a60ff16815250600090600a610082929190610095565b5034801561008f57600080fd5b50610104565b8280548282559060005260206000209081019282156100d6579160200282015b828111156100d5578251829060ff169055916020019190600101906100b5565b5b5090506100e391906100e7565b5090565b5b808211156101005760008160009055506001016100e8565b5090565b610dc0806101136000396000f3fe608060405234801561001057600080fd5b50600436106100f55760003560e01c80638b4cb33511610097578063ade82bfd11610066578063ade82bfd14610251578063b1cebac51461025b578063d39fa23314610265578063f3d4e56214610295576100f5565b80638b4cb335146101b75780638bc33af3146101d55780639977c78a14610205578063a00b7acd14610235576100f5565b80634f9377db116100d35780634f9377db1461015557806359abbfe4146101715780637f66b1b81461018f57806389f915f614610199576100f5565b8063128e0423146100fa578063146b6e4d1461011857806320aaf79a14610136575b600080fd5b6101026102b3565b60405161010f9190610a09565b60405180910390f35b610120610341565b60405161012d9190610a44565b60405180910390f35b61013e61034e565b60405161014c929190610b1d565b60405180910390f35b61016f600480360381019061016a9190610bc3565b610573565b005b6101796105db565b6040516101869190610c10565b60405180910390f35b610197610633565b005b6101a1610643565b6040516101ae9190610c10565b60405180910390f35b6101bf61069b565b6040516101cc9190610a44565b60405180910390f35b6101ef60048036038101906101ea9190610c5e565b6106a8565b6040516101fc9190610a44565b60405180910390f35b61021f600480360381019061021a9190610c5e565b6106cc565b60405161022c9190610c9a565b60405180910390f35b61024f600480360381019061024a9190610c5e565b61070b565b005b61025961079a565b005b6102636107aa565b005b61027f600480360381019061027a9190610c5e565b610838565b60405161028c9190610a44565b60405180910390f35b61029d61085c565b6040516102aa9190610a44565b60405180910390f35b6060600180548060200260200160405190810160405280929190818152602001828054801561033757602002820191906000526020600020905b8160009054906101000a900473ffffffffffffffffffffffffffffffffffffffff1673ffffffffffffffffffffffffffffffffffffffff16815260200190600101908083116102ed575b5050505050905090565b6000600280549050905090565b6060806000805b6002805490508110156103ae5763386d89d06002828154811061037b5761037a610cb5565b5b9060005260206000200154111561039b57818061039790610d13565b9250505b80806103a690610d13565b915050610355565b508067ffffffffffffffff8111156103c9576103c8610d5b565b5b6040519080825280602002602001820160405280156103f75781602001602082028036833780820191505090505b5092508067ffffffffffffffff81111561041457610413610d5b565b5b6040519080825280602002602001820160405280156104425781602001602082028036833780820191505090505b5091506000805b60028054905081101561056c5763386d89d06002828154811061046f5761046e610cb5565b5b90600052602060002001541115610559576002818154811061049457610493610cb5565b5b90600052602060002001548583815181106104b2576104b1610cb5565b5b602002602001018181525050600181815481106104d2576104d1610cb5565b5b9060005260206000200160009054906101000a900473ffffffffffffffffffffffffffffffffffffffff168483815181106105105761050f610cb5565b5b602002602001019073ffffffffffffffffffffffffffffffffffffffff16908173ffffffffffffffffffffffffffffffffffffffff1681525050818061055590610d13565b9250505b808061056490610d13565b915050610449565b5050509091565b60005b828290508110156105d657600083838381811061059657610595610cb5565b5b90506020020135908060018154018082558091505060019003906000526020600020016000909190919091505580806105ce90610d13565b915050610576565b505050565b6060600280548060200260200160405190810160405280929190818152602001828054801561062957602002820191906000526020600020905b815481526020019060010190808311610615575b5050505050905090565b600160006106419190610868565b565b6060600080548060200260200160405190810160405280929190818152602001828054801561069157602002820191906000526020600020905b81548152602001906001019080831161067d575b5050505050905090565b6000600180549050905090565b600281815481106106b857600080fd5b906000526020600020016000915090505481565b600181815481106106dc57600080fd5b906000526020600020016000915054906101000a900473ffffffffffffffffffffffffffffffffffffffff1681565b6001339080600181540180825580915050600190039060005260206000200160009091909190916101000a81548173ffffffffffffffffffffffffffffffffffffffff021916908373ffffffffffffffffffffffffffffffffffffffff160217905550600281908060018154018082558091505060019003906000526020600020016000909190919091505550565b600260006107a89190610889565b565b6000806107b79190610889565b604051806101400160405280600160ff168152602001600260ff168152602001600360ff168152602001600460ff168152602001600560ff168152602001600660ff168152602001600760ff168152602001600860ff168152602001600960ff168152602001600a60ff16815250600090600a6108359291906108aa565b50565b6000818154811061084857600080fd5b906000526020600020016000915090505481565b60008080549050905090565b508054600082559060005260206000209081019061088691906108fc565b50565b50805460008255906000526020600020908101906108a791906108fc565b50565b8280548282559060005260206000209081019282156108eb579160200282015b828111156108ea578251829060ff169055916020019190600101906108ca565b5b5090506108f891906108fc565b5090565b5b808211156109155760008160009055506001016108fd565b5090565b600081519050919050565b600082825260208201905092915050565b6000819050602082019050919050565b600073ffffffffffffffffffffffffffffffffffffffff82169050919050565b600061097082610945565b9050919050565b61098081610965565b82525050565b60006109928383610977565b60208301905092915050565b6000602082019050919050565b60006109b682610919565b6109c08185610924565b93506109cb83610935565b8060005b838110156109fc5781516109e38882610986565b97506109ee8361099e565b9250506001810190506109cf565b5085935050505092915050565b60006020820190508181036000830152610a2381846109ab565b905092915050565b6000819050919050565b610a3e81610a2b565b82525050565b6000602082019050610a596000830184610a35565b92915050565b600081519050919050565b600082825260208201905092915050565b6000819050602082019050919050565b610a9481610a2b565b82525050565b6000610aa68383610a8b565b60208301905092915050565b6000602082019050919050565b6000610aca82610a5f565b610ad48185610a6a565b9350610adf83610a7b565b8060005b83811015610b10578151610af78882610a9a565b9750610b0283610ab2565b925050600181019050610ae3565b5085935050505092915050565b60006040820190508181036000830152610b378185610abf565b90508181036020830152610b4b81846109ab565b90509392505050565b600080fd5b600080fd5b600080fd5b600080fd5b600080fd5b60008083601f840112610b8357610b82610b5e565b5b8235905067ffffffffffffffff811115610ba057610b9f610b63565b5b602083019150836020820283011115610bbc57610bbb610b68565b5b9250929050565b60008060208385031215610bda57610bd9610b54565b5b600083013567ffffffffffffffff811115610bf857610bf7610b59565b5b610c0485828601610b6d565b92509250509250929050565b60006020820190508181036000830152610c2a8184610abf565b905092915050565b610c3b81610a2b565b8114610c4657600080fd5b50565b600081359050610c5881610c32565b92915050565b600060208284031215610c7457610c73610b54565b5b6000610c8284828501610c49565b91505092915050565b610c9481610965565b82525050565b6000602082019050610caf6000830184610c8b565b92915050565b7f4e487b7100000000000000000000000000000000000000000000000000000000600052603260045260246000fd5b7f4e487b7100000000000000000000000000000000000000000000000000000000600052601160045260246000fd5b6000610d1e82610a2b565b91507fffffffffffffffffffffffffffffffffffffffffffffffffffffffffffffffff8203610d5057610d4f610ce4565b5b600182019050919050565b7f4e487b7100000000000000000000000000000000000000000000000000000000600052604160045260246000fdfea2646970667358221220814c4e04614a9e64932e96903581b73bff0c4c634970108e9f5558eb6661c20f64736f6c63430008130033","linkReferences":{}},"methodIdentifiers":{"afterY2K()":"20aaf79a","appendToNumbers(uint256[])":"4f9377db","getNumbers()":"89f915f6","getNumbersLength()":"f3d4e562","getSenders()":"128e0423","getSendersLength()":"8b4cb335","getTimestamps()":"59abbfe4","getTimestampsLength()":"146b6e4d","numbers(uint256)":"d39fa233","resetNumbers()":"b1cebac5","resetSenders()":"7f66b1b8","resetTimestamps()":"ade82bfd","saveTimestamp(uint256)":"a00b7acd","senders(uint256)":"9977c78a","timestamps(uint256)":"8bc33af3"},"id":21}