{"abi":[{"type":"function","name":"doNotDisturb","inputs":[{"name":"_time","type":"uint256","internalType":"uint256"}],"outputs":[{"name":"","type":"string","internalType":"string"}],"stateMutability":"pure"},{"type":"function","name":"fizzBuzz","inputs":[{"name":"_number","type":"uint256","internalType":"uint256"}],"outputs":[{"name":"","type":"string","internalType":"string"}],"stateMutability":"pure"},{"type":"error","name":"AfterHours","inputs":[{"name":"time","type":"uint256","internalType":"uint256"}]}],"bytecode":{"object":"0x608060405234801561001057600080fd5b506106cc806100206000396000f3fe608060405234801561001057600080fd5b50600436106100365760003560e01c8063440c93e21461003b578063e655b7bb1461006b575b600080fd5b61005560048036038101906100509190610426565b61009b565b60405161006291906104e3565b60405180910390f35b61008560048036038101906100809190610426565b6101e7565b60405161009291906104e3565b60405180910390f35b606060006003836100ac9190610534565b1480156100c5575060006005836100c39190610534565b145b15610107576040518060400160405280600881526020017f46697a7a42757a7a00000000000000000000000000000000000000000000000081525090506101e2565b60006003836101169190610534565b03610158576040518060400160405280600481526020017f46697a7a0000000000000000000000000000000000000000000000000000000081525090506101e2565b60006005836101679190610534565b036101a9576040518060400160405280600481526020017f42757a7a0000000000000000000000000000000000000000000000000000000081525090506101e2565b6040518060400160405280600581526020017f53706c617400000000000000000000000000000000000000000000000000000081525090505b919050565b6060610960821061020257600061020157610200610565565b5b5b610898821180610213575061032082105b1561025557816040517fa4bf701e00000000000000000000000000000000000000000000000000000000815260040161024c91906105a3565b60405180910390fd5b6104b0821015801561026957506104eb8211155b156102a9576040517f08c379a00000000000000000000000000000000000000000000000000000000081526004016102a09061060a565b60405180910390fd5b61032082101580156102bd57506104af8211155b156102ff576040518060400160405280600881526020017f4d6f726e696e672100000000000000000000000000000000000000000000000081525090506103e6565b610514821015801561031357506107078211155b15610355576040518060400160405280600a81526020017f41667465726e6f6f6e210000000000000000000000000000000000000000000081525090506103e6565b610708821015801561036957506108988211155b156103ab576040518060400160405280600881526020017f4576656e696e672100000000000000000000000000000000000000000000000081525090506103e6565b6040517f08c379a00000000000000000000000000000000000000000000000000000000081526004016103dd90610676565b60405180910390fd5b919050565b600080fd5b6000819050919050565b610403816103f0565b811461040e57600080fd5b50565b600081359050610420816103fa565b92915050565b60006020828403121561043c5761043b6103eb565b5b600061044a84828501610411565b91505092915050565b600081519050919050565b600082825260208201905092915050565b60005b8381101561048d578082015181840152602081019050610472565b60008484015250505050565b6000601f19601f8301169050919050565b60006104b582610453565b6104bf818561045e565b93506104cf81856020860161046f565b6104d881610499565b840191505092915050565b600060208201905081810360008301526104fd81846104aa565b905092915050565b7f4e487b7100000000000000000000000000000000000000000000000000000000600052601260045260246000fd5b600061053f826103f0565b915061054a836103f0565b92508261055a57610559610505565b5b828206905092915050565b7f4e487b7100000000000000000000000000000000000000000000000000000000600052600160045260246000fd5b61059d816103f0565b82525050565b60006020820190506105b86000830184610594565b92915050565b7f4174206c756e6368210000000000000000000000000000000000000000000000600082015250565b60006105f460098361045e565b91506105ff826105be565b602082019050919050565b60006020820190508181036000830152610623816105e7565b9050919050565b7f496e76616c69642074696d650000000000000000000000000000000000000000600082015250565b6000610660600c8361045e565b915061066b8261062a565b602082019050919050565b6000602082019050818103600083015261068f81610653565b905091905056fea26469706673582212200cd7dcdca39db16a4f345231f78618c4521700c4d8940f3f85ccbcf92da67ec464736f6c63430008130033","linkReferences":{}},"methodIdentifiers":{"doNotDisturb(uint256)":"e655b7bb","fizzBuzz(uint256)":"440c93e2"},"id":21}