{"abi":[{"type":"constructor","inputs":[],"stateMutability":"nonpayable"},{"type":"function","name":"allowance","inputs":[{"name":"owner","type":"address","internalType":"address"},{"name":"spender","type":"address","internalType":"address"}],"outputs":[{"name":"","type":"uint256","internalType":"uint256"}],"stateMutability":"view"},{"type":"function","name":"approve","inputs":[{"name":"spender","type":"address","internalType":"address"},{"name":"value","type":"uint256","internalType":"uint256"}],"outputs":[{"name":"","type":"bool","internalType":"bool"}],"stateMutability":"nonpayable"},{"type":"function","name":"balanceOf","inputs":[{"name":"account","type":"address","internalType":"address"}],"outputs":[{"name":"","type":"uint256","internalType":"uint256"}],"stateMutability":"view"},{"type":"function","name":"claim","inputs":[],"outputs":[],"stateMutability":"nonpayable"},{"type":"function","name":"createIssue","inputs":[{"name":"_description","type":"string","internalType":"string"},{"name":"_quorum","type":"uint256","internalType":"uint256"}],"outputs":[{"name":"issueId","type":"uint256","internalType":"uint256"}],"stateMutability":"nonpayable"},{"type":"function","name":"decimals","inputs":[],"outputs":[{"name":"","type":"uint8","internalType":"uint8"}],"stateMutability":"view"},{"type":"function","name":"getIssue","inputs":[{"name":"_id","type":"uint256","internalType":"uint256"}],"outputs":[{"name":"issueView","type":"tuple","internalType":"struct WeightedVoting.IssueView","components":[{"name":"voters","type":"address[]","internalType":"address[]"},{"name":"issueDesc","type":"string","internalType":"string"},{"name":"votesFor","type":"uint256","internalType":"uint256"},{"name":"votesAgainst","type":"uint256","internalType":"uint256"},{"name":"votesAbstain","type":"uint256","internalType":"uint256"},{"name":"totalVotes","type":"uint256","internalType":"uint256"},{"name":"quorum","type":"uint256","internalType":"uint256"},{"name":"passed","type":"bool","internalType":"bool"},{"name":"closed","type":"bool","internalType":"bool"}]}],"stateMutability":"view"},{"type":"function","name":"getIssueCount","inputs":[],"outputs":[{"name":"","type":"uint256","internalType":"uint256"}],"stateMutability":"view"},{"type":"function","name":"hasClaimedTokens","inputs":[{"name":"_address","type":"address","internalType":"address"}],"outputs":[{"name":"","type":"bool","internalType":"bool"}],"stateMutability":"view"},{"type":"function","name":"maxSupply","inputs":[],"outputs":[{"name":"","type":"uint256","internalType":"uint256"}],"stateMutability":"view"},{"type":"function","name":"name","inputs":[],"outputs":[{"name":"","type":"string","internalType":"string"}],"stateMutability":"view"},{"type":"function","name":"remainingTokens","inputs":[],"outputs":[{"name":"","type":"uint256","internalType":"uint256"}],"stateMutability":"view"},{"type":"function","name":"symbol","inputs":[],"outputs":[{"name":"","type":"string","internalType":"string"}],"stateMutability":"view"},{"type":"function","name":"totalSupply","inputs":[],"outputs":[{"name":"","type":"uint256","internalType":"uint256"}],"stateMutability":"view"},{"type":"function","name":"transfer","inputs":[{"name":"to","type":"address","internalType":"address"},{"name":"value","type":"uint256","internalType":"uint256"}],"outputs":[{"name":"","type":"bool","internalType":"bool"}],"stateMutability":"nonpayable"},{"type":"function","name":"transferFrom","inputs":[{"name":"from","type":"address","internalType":"address"},{"name":"to","type":"address","internalType":"address"},{"name":"value","type":"uint256","internalType":"uint256"}],"outputs":[{"name":"","type":"bool","internalType":"bool"}],"stateMutability":"nonpayable"},{"type":"function","name":"vote","inputs":[{"name":"_issueId","type":"uint256","internalType":"uint256"},{"name":"_vote","type":"uint8","internalType":"enum WeightedVoting.Vote"}],"outputs":[],"stateMutability":"nonpayable"},{"type":"event","name":"Approval","inputs":[{"name":"owner","type":"address","indexed":true,"internalType":"address"},{"name":"spender","type":"address","indexed":true,"internalType":"address"},{"name":"value","type":"uint256","indexed":false,"internalType":"uint256"}],"anonymous":false},{"type":"event","name":"IssueClaimed","inputs":[{"name":"claimer","type":"address","indexed":true,"internalType":"address"},{"name":"amount","type":"uint256","indexed":false,"internalType":"uint256"}],"anonymous":false},{"type":"event","name":"IssueCreated","inputs":[{"name":"issueId","type":"uint256","indexed":true,"internalType":"uint256"},{"name":"description","type":"string","indexed":false,"internalType":"string"},{"name":"quorum","type":"uint256","indexed":false,"internalType":"uint256"}],"anonymous":false},{"type":"event","name":"IssueResolved","inputs":[{"name":"issueId","type":"uint256","indexed":true,"internalType":"uint256"},{"name":"passed","type":"bool","indexed":false,"internalType":"bool"}],"anonymous":false},{"type":"event","name":"Transfer","inputs":[{"name":"from","type":"address","indexed":true,"internalType":"address"},{"name":"to","type":"address","indexed":true,"internalType":"address"},{"name":"value","type":"uint256","indexed":false,"internalType":"uint256"}],"anonymous":false},{"type":"event","name":"VoteCast","inputs":[{"name":"issueId","type":"uint256","indexed":true,"internalType":"uint256"},{"name":"voter","type":"address","indexed":true,"internalType":"address"},{"name":"vote","type":"uint8","indexed":false,"internalType":"enum WeightedVoting.Vote"},{"name":"weight","type":"uint256","indexed":false,"internalType":"uint256"}],"anonymous":false},{"type":"error","name":"AllTokensClaimed","inputs":[]},{"type":"error","name":"AlreadyVoted","inputs":[]},{"type":"error","name":"ERC20InsufficientAllowance","inputs":[{"name":"spender","type":"address","internalType":"address"},{"name":"allowance","type":"uint256","internalType":"uint256"},{"name":"needed","type":"uint256","internalType":"uint256"}]},{"type":"error","name":"ERC20InsufficientBalance","inputs":[{"name":"sender","type":"address","internalType":"address"},{"name":"balance","type":"uint256","internalType":"uint256"},{"name":"needed","type":"uint256","internalType":"uint256"}]},{"type":"error","name":"ERC20InvalidApprover","inputs":[{"name":"approver","type":"address","internalType":"address"}]},{"type":"error","name":"ERC20InvalidReceiver","inputs":[{"name":"receiver","type":"address","internalType":"address"}]},{"type":"error","name":"ERC20InvalidSender","inputs":[{"name":"sender","type":"address","internalType":"address"}]},{"type":"error","name":"ERC20InvalidSpender","inputs":[{"name":"spender","type":"address","internalType":"address"}]},{"type":"error","name":"NoTokensHeld","inputs":[]},{"type":"error","name":"QuorumTooHigh","inputs":[{"name":"quorum","type":"uint256","internalType":"uint256"}]},{"type":"error","name":"TokensClaimed","inputs":[]},{"type":"error","name":"VotingClosed","inputs":[]}],"bytecode":{"object":"0x608060405234801562000010575f80fd5b506040518060400160405280600e81526020017f5765696768746564566f74696e670000000000000000000000000000000000008152506040518060400160405280600281526020017f575600000000000000000000000000000000000000000000000000000000000081525081600390816200008e919062000329565b508060049081620000a0919062000329565b505050600660018160018154018082558091505003905f5260205f209050506200040d565b5f81519050919050565b7f4e487b71000000000000000000000000000000000000000000000000000000005f52604160045260245ffd5b7f4e487b71000000000000000000000000000000000000000000000000000000005f52602260045260245ffd5b5f60028204905060018216806200014157607f821691505b602082108103620001575762000156620000fc565b5b50919050565b5f819050815f5260205f209050919050565b5f6020601f8301049050919050565b5f82821b905092915050565b5f60088302620001bb7fffffffffffffffffffffffffffffffffffffffffffffffffffffffffffffffff826200017e565b620001c786836200017e565b95508019841693508086168417925050509392505050565b5f819050919050565b5f819050919050565b5f620002116200020b6200020584620001df565b620001e8565b620001df565b9050919050565b5f819050919050565b6200022c83620001f1565b620002446200023b8262000218565b8484546200018a565b825550505050565b5f90565b6200025a6200024c565b6200026781848462000221565b505050565b5b818110156200028e57620002825f8262000250565b6001810190506200026d565b5050565b601f821115620002dd57620002a7816200015d565b620002b2846200016f565b81016020851015620002c2578190505b620002da620002d1856200016f565b8301826200026c565b50505b505050565b5f82821c905092915050565b5f620002ff5f1984600802620002e2565b1980831691505092915050565b5f620003198383620002ee565b9150826002028217905092915050565b6200033482620000c5565b67ffffffffffffffff81111562000350576200034f620000cf565b5b6200035c825462000129565b6200036982828562000292565b5f60209050601f8311600181146200039f575f84156200038a578287015190505b6200039685826200030c565b86555062000405565b601f198416620003af866200015d565b5f5b82811015620003d857848901518255600182019150602085019450602081019050620003b1565b86831015620003f85784890151620003f4601f891682620002ee565b8355505b6001600288020188555050505b505050505050565b612592806200041b5f395ff3fe608060405234801561000f575f80fd5b5060043610610109575f3560e01c80638615d855116100a0578063a9059cbb1161006f578063a9059cbb146102b9578063bf583903146102e9578063d5abeb0114610307578063dd62ed3e14610325578063ed613ac11461035557610109565b80638615d8551461021f578063943e82161461024f57806395d89b411461026b578063976b31131461028957610109565b806323b872dd116100dc57806323b872dd14610197578063313ce567146101c75780634e71d92d146101e557806370a08231146101ef57610109565b806306fdde031461010d578063095ea7b31461012b5780630d4c47081461015b57806318160ddd14610179575b5f80fd5b610115610385565b6040516101229190611819565b60405180910390f35b610145600480360381019061014091906118d7565b610415565b604051610152919061192f565b60405180910390f35b610163610437565b6040516101709190611957565b60405180910390f35b610181610443565b60405161018e9190611957565b60405180910390f35b6101b160048036038101906101ac9190611970565b61044c565b6040516101be919061192f565b60405180910390f35b6101cf61047a565b6040516101dc91906119db565b60405180910390f35b6101ed610482565b005b610209600480360381019061020491906119f4565b610647565b6040516102169190611957565b60405180910390f35b61023960048036038101906102349190611b4b565b61068c565b6040516102469190611957565b60405180910390f35b61026960048036038101906102649190611bc8565b610824565b005b610273610bb9565b6040516102809190611819565b60405180910390f35b6102a3600480360381019061029e9190611c06565b610c49565b6040516102b09190611e17565b60405180910390f35b6102d360048036038101906102ce91906118d7565b610ee9565b6040516102e0919061192f565b60405180910390f35b6102f1610f0b565b6040516102fe9190611957565b60405180910390f35b61030f610f27565b60405161031c9190611957565b60405180910390f35b61033f600480360381019061033a9190611e37565b610f2e565b60405161034c9190611957565b60405180910390f35b61036f600480360381019061036a91906119f4565b610fb0565b60405161037c919061192f565b60405180910390f35b60606003805461039490611ea2565b80601f01602080910402602001604051908101604052809291908181526020018280546103c090611ea2565b801561040b5780601f106103e25761010080835404028352916020019161040b565b820191905f5260205f20905b8154815290600101906020018083116103ee57829003601f168201915b5050505050905090565b5f8061041f611002565b905061042c818585611009565b600191505092915050565b5f600680549050905090565b5f600254905090565b5f80610456611002565b905061046385828561101b565b61046e8585856110ae565b60019150509392505050565b5f6012905090565b620f424061048e610443565b106104c5576040517fcbe2483100000000000000000000000000000000000000000000000000000000815260040160405180910390fd5b60055f3373ffffffffffffffffffffffffffffffffffffffff1673ffffffffffffffffffffffffffffffffffffffff1681526020019081526020015f205f9054906101000a900460ff1615610546576040517f0b1327a600000000000000000000000000000000000000000000000000000000815260040160405180910390fd5b620f42406064610554610443565b61055e9190611eff565b1115610596576040517fcbe2483100000000000000000000000000000000000000000000000000000000815260040160405180910390fd5b600160055f3373ffffffffffffffffffffffffffffffffffffffff1673ffffffffffffffffffffffffffffffffffffffff1681526020019081526020015f205f6101000a81548160ff0219169083151502179055506105f633606461119e565b3373ffffffffffffffffffffffffffffffffffffffff167f5c52f0353e646b56ba9b98e6b35ab04af5dd4cbc32747dcddde8c881457d3b44606460405161063d9190611f74565b60405180910390a2565b5f805f8373ffffffffffffffffffffffffffffffffffffffff1673ffffffffffffffffffffffffffffffffffffffff1681526020019081526020015f20549050919050565b5f8061069733610647565b036106ce576040517f8439960d00000000000000000000000000000000000000000000000000000000815260040160405180910390fd5b6106d6610443565b82111561071a57816040517f589a49520000000000000000000000000000000000000000000000000000000081526004016107119190611957565b60405180910390fd5b600660018160018154018082558091505003905f5260205f2090505060016006805490506107489190611f8d565b90505f6006828154811061075f5761075e611fc0565b5b905f5260205f20906009020190508381600201908161077e9190612181565b508281600701819055505f81600301819055505f81600401819055505f81600501819055505f81600601819055505f816008015f6101000a81548160ff0219169083151502179055505f8160080160016101000a81548160ff021916908315150217905550817f808aeb173d2b4af9e10987d8d62a1050d6fad713832d34a06f9a0eccb86306e88585604051610815929190612250565b60405180910390a25092915050565b600680549050821061086b576040517f08c379a0000000000000000000000000000000000000000000000000000000008152600401610862906122c8565b60405180910390fd5b5f82116108ad576040517f08c379a00000000000000000000000000000000000000000000000000000000081526004016108a490612330565b60405180910390fd5b5f600683815481106108c2576108c1611fc0565b5b905f5260205f20906009020190508060080160019054906101000a900460ff1615610919576040517f66b6cb4a00000000000000000000000000000000000000000000000000000000815260040160405180910390fd5b61092e33825f0161121d90919063ffffffff16565b15610965576040517f7c9a1cf900000000000000000000000000000000000000000000000000000000815260040160405180910390fd5b5f61096f33610647565b90505f81116109b3576040517f08c379a00000000000000000000000000000000000000000000000000000000081526004016109aa90612398565b60405180910390fd5b6109c833835f0161124a90919063ffffffff16565b50600160028111156109dd576109dc6123b6565b5b8360028111156109f0576109ef6123b6565b5b03610a145780826003015f828254610a089190611eff565b92505081905550610aa6565b5f6002811115610a2757610a266123b6565b5b836002811115610a3a57610a396123b6565b5b03610a5e5780826004015f828254610a529190611eff565b92505081905550610aa5565b600280811115610a7157610a706123b6565b5b836002811115610a8457610a836123b6565b5b03610aa45780826005015f828254610a9c9190611eff565b925050819055505b5b5b80826006015f828254610ab99190611eff565b925050819055503373ffffffffffffffffffffffffffffffffffffffff16847fb83d25c6a5d258561330739951487acb4bd09ba5190b5d32c4f261817d9067928584604051610b09929190612429565b60405180910390a38160070154826006015410610bb35760018260080160016101000a81548160ff021916908315150217905550816004015482600301541115610b6a576001826008015f6101000a81548160ff0219169083151502179055505b837f181ceb7d7b10ab91fa8ec81084398240cf78f4b285d025a67343af85a448d63e836008015f9054906101000a900460ff16604051610baa919061192f565b60405180910390a25b50505050565b606060048054610bc890611ea2565b80601f0160208091040260200160405190810160405280929190818152602001828054610bf490611ea2565b8015610c3f5780601f10610c1657610100808354040283529160200191610c3f565b820191905f5260205f20905b815481529060010190602001808311610c2257829003601f168201915b5050505050905090565b610c51611746565b6006805490508210610c98576040517f08c379a0000000000000000000000000000000000000000000000000000000008152600401610c8f906122c8565b60405180910390fd5b5f8211610cda576040517f08c379a0000000000000000000000000000000000000000000000000000000008152600401610cd19061249a565b60405180910390fd5b5f60068381548110610cef57610cee611fc0565b5b905f5260205f20906009020190505f610d09825f01611277565b67ffffffffffffffff811115610d2257610d21611a27565b5b604051908082528060200260200182016040528015610d505781602001602082028036833780820191505090505b5090505f5b610d60835f01611277565b811015610ddc57610d7c81845f0161128a90919063ffffffff16565b828281518110610d8f57610d8e611fc0565b5b602002602001019073ffffffffffffffffffffffffffffffffffffffff16908173ffffffffffffffffffffffffffffffffffffffff16815250508080610dd4906124b8565b915050610d55565b50604051806101200160405280828152602001836002018054610dfe90611ea2565b80601f0160208091040260200160405190810160405280929190818152602001828054610e2a90611ea2565b8015610e755780601f10610e4c57610100808354040283529160200191610e75565b820191905f5260205f20905b815481529060010190602001808311610e5857829003601f168201915b505050505081526020018360030154815260200183600401548152602001836005015481526020018360060154815260200183600701548152602001836008015f9054906101000a900460ff16151581526020018360080160019054906101000a900460ff16151581525092505050919050565b5f80610ef3611002565b9050610f008185856110ae565b600191505092915050565b5f610f14610443565b620f4240610f229190611f8d565b905090565b620f424081565b5f60015f8473ffffffffffffffffffffffffffffffffffffffff1673ffffffffffffffffffffffffffffffffffffffff1681526020019081526020015f205f8373ffffffffffffffffffffffffffffffffffffffff1673ffffffffffffffffffffffffffffffffffffffff1681526020019081526020015f2054905092915050565b5f60055f8373ffffffffffffffffffffffffffffffffffffffff1673ffffffffffffffffffffffffffffffffffffffff1681526020019081526020015f205f9054906101000a900460ff169050919050565b5f33905090565b61101683838360016112a1565b505050565b5f6110268484610f2e565b90507fffffffffffffffffffffffffffffffffffffffffffffffffffffffffffffffff8110156110a85781811015611099578281836040517ffb8f41b20000000000000000000000000000000000000000000000000000000081526004016110909392919061250e565b60405180910390fd5b6110a784848484035f6112a1565b5b50505050565b5f73ffffffffffffffffffffffffffffffffffffffff168373ffffffffffffffffffffffffffffffffffffffff160361111e575f6040517f96c6fd1e0000000000000000000000000000000000000000000000000000000081526004016111159190612543565b60405180910390fd5b5f73ffffffffffffffffffffffffffffffffffffffff168273ffffffffffffffffffffffffffffffffffffffff160361118e575f6040517fec442f050000000000000000000000000000000000000000000000000000000081526004016111859190612543565b60405180910390fd5b611199838383611470565b505050565b5f73ffffffffffffffffffffffffffffffffffffffff168273ffffffffffffffffffffffffffffffffffffffff160361120e575f6040517fec442f050000000000000000000000000000000000000000000000000000000081526004016112059190612543565b60405180910390fd5b6112195f8383611470565b5050565b5f611242835f018373ffffffffffffffffffffffffffffffffffffffff165f1b611689565b905092915050565b5f61126f835f018373ffffffffffffffffffffffffffffffffffffffff165f1b6116a9565b905092915050565b5f611283825f01611710565b9050919050565b5f611297835f018361171f565b5f1c905092915050565b5f73ffffffffffffffffffffffffffffffffffffffff168473ffffffffffffffffffffffffffffffffffffffff1603611311575f6040517fe602df050000000000000000000000000000000000000000000000000000000081526004016113089190612543565b60405180910390fd5b5f73ffffffffffffffffffffffffffffffffffffffff168373ffffffffffffffffffffffffffffffffffffffff1603611381575f6040517f94280d620000000000000000000000000000000000000000000000000000000081526004016113789190612543565b60405180910390fd5b8160015f8673ffffffffffffffffffffffffffffffffffffffff1673ffffffffffffffffffffffffffffffffffffffff1681526020019081526020015f205f8573ffffffffffffffffffffffffffffffffffffffff1673ffffffffffffffffffffffffffffffffffffffff1681526020019081526020015f2081905550801561146a578273ffffffffffffffffffffffffffffffffffffffff168473ffffffffffffffffffffffffffffffffffffffff167f8c5be1e5ebec7d5bd14f71427d1e84f3dd0314c0f7b2291e5b200ac8c7c3b925846040516114619190611957565b60405180910390a35b50505050565b5f73ffffffffffffffffffffffffffffffffffffffff168373ffffffffffffffffffffffffffffffffffffffff16036114c0578060025f8282546114b49190611eff565b9250508190555061158e565b5f805f8573ffffffffffffffffffffffffffffffffffffffff1673ffffffffffffffffffffffffffffffffffffffff1681526020019081526020015f2054905081811015611549578381836040517fe450d38c0000000000000000000000000000000000000000000000000000000081526004016115409392919061250e565b60405180910390fd5b8181035f808673ffffffffffffffffffffffffffffffffffffffff1673ffffffffffffffffffffffffffffffffffffffff1681526020019081526020015f2081905550505b5f73ffffffffffffffffffffffffffffffffffffffff168273ffffffffffffffffffffffffffffffffffffffff16036115d5578060025f828254039250508190555061161f565b805f808473ffffffffffffffffffffffffffffffffffffffff1673ffffffffffffffffffffffffffffffffffffffff1681526020019081526020015f205f82825401925050819055505b8173ffffffffffffffffffffffffffffffffffffffff168373ffffffffffffffffffffffffffffffffffffffff167fddf252ad1be2c89b69c2b068fc378daa952ba7f163c4a11628f55a4df523b3ef8360405161167c9190611957565b60405180910390a3505050565b5f80836001015f8481526020019081526020015f20541415905092915050565b5f6116b48383611689565b61170657825f0182908060018154018082558091505060019003905f5260205f20015f9091909190915055825f0180549050836001015f8481526020019081526020015f20819055506001905061170a565b5f90505b92915050565b5f815f01805490509050919050565b5f825f01828154811061173557611734611fc0565b5b905f5260205f200154905092915050565b60405180610120016040528060608152602001606081526020015f81526020015f81526020015f81526020015f81526020015f81526020015f151581526020015f151581525090565b5f81519050919050565b5f82825260208201905092915050565b5f5b838110156117c65780820151818401526020810190506117ab565b5f8484015250505050565b5f601f19601f8301169050919050565b5f6117eb8261178f565b6117f58185611799565b93506118058185602086016117a9565b61180e816117d1565b840191505092915050565b5f6020820190508181035f83015261183181846117e1565b905092915050565b5f604051905090565b5f80fd5b5f80fd5b5f73ffffffffffffffffffffffffffffffffffffffff82169050919050565b5f6118738261184a565b9050919050565b61188381611869565b811461188d575f80fd5b50565b5f8135905061189e8161187a565b92915050565b5f819050919050565b6118b6816118a4565b81146118c0575f80fd5b50565b5f813590506118d1816118ad565b92915050565b5f80604083850312156118ed576118ec611842565b5b5f6118fa85828601611890565b925050602061190b858286016118c3565b9150509250929050565b5f8115159050919050565b61192981611915565b82525050565b5f6020820190506119425f830184611920565b92915050565b611951816118a4565b82525050565b5f60208201905061196a5f830184611948565b92915050565b5f805f6060848603121561198757611986611842565b5b5f61199486828701611890565b93505060206119a586828701611890565b92505060406119b6868287016118c3565b9150509250925092565b5f60ff82169050919050565b6119d5816119c0565b82525050565b5f6020820190506119ee5f8301846119cc565b92915050565b5f60208284031215611a0957611a08611842565b5b5f611a1684828501611890565b91505092915050565b5f80fd5b5f80fd5b7f4e487b71000000000000000000000000000000000000000000000000000000005f52604160045260245ffd5b611a5d826117d1565b810181811067ffffffffffffffff82111715611a7c57611a7b611a27565b5b80604052505050565b5f611a8e611839565b9050611a9a8282611a54565b919050565b5f67ffffffffffffffff821115611ab957611ab8611a27565b5b611ac2826117d1565b9050602081019050919050565b828183375f83830152505050565b5f611aef611aea84611a9f565b611a85565b905082815260208101848484011115611b0b57611b0a611a23565b5b611b16848285611acf565b509392505050565b5f82601f830112611b3257611b31611a1f565b5b8135611b42848260208601611add565b91505092915050565b5f8060408385031215611b6157611b60611842565b5b5f83013567ffffffffffffffff811115611b7e57611b7d611846565b5b611b8a85828601611b1e565b9250506020611b9b858286016118c3565b9150509250929050565b60038110611bb1575f80fd5b50565b5f81359050611bc281611ba5565b92915050565b5f8060408385031215611bde57611bdd611842565b5b5f611beb858286016118c3565b9250506020611bfc85828601611bb4565b9150509250929050565b5f60208284031215611c1b57611c1a611842565b5b5f611c28848285016118c3565b91505092915050565b5f81519050919050565b5f82825260208201905092915050565b5f819050602082019050919050565b611c6381611869565b82525050565b5f611c748383611c5a565b60208301905092915050565b5f602082019050919050565b5f611c9682611c31565b611ca08185611c3b565b9350611cab83611c4b565b805f5b83811015611cdb578151611cc28882611c69565b9750611ccd83611c80565b925050600181019050611cae565b5085935050505092915050565b5f82825260208201905092915050565b5f611d028261178f565b611d0c8185611ce8565b9350611d1c8185602086016117a9565b611d25816117d1565b840191505092915050565b611d39816118a4565b82525050565b611d4881611915565b82525050565b5f61012083015f8301518482035f860152611d698282611c8c565b91505060208301518482036020860152611d838282611cf8565b9150506040830151611d986040860182611d30565b506060830151611dab6060860182611d30565b506080830151611dbe6080860182611d30565b5060a0830151611dd160a0860182611d30565b5060c0830151611de460c0860182611d30565b5060e0830151611df760e0860182611d3f565b50610100830151611e0c610100860182611d3f565b508091505092915050565b5f6020820190508181035f830152611e2f8184611d4e565b905092915050565b5f8060408385031215611e4d57611e4c611842565b5b5f611e5a85828601611890565b9250506020611e6b85828601611890565b9150509250929050565b7f4e487b71000000000000000000000000000000000000000000000000000000005f52602260045260245ffd5b5f6002820490506001821680611eb957607f821691505b602082108103611ecc57611ecb611e75565b5b50919050565b7f4e487b71000000000000000000000000000000000000000000000000000000005f52601160045260245ffd5b5f611f09826118a4565b9150611f14836118a4565b9250828201905080821115611f2c57611f2b611ed2565b5b92915050565b5f819050919050565b5f819050919050565b5f611f5e611f59611f5484611f32565b611f3b565b6118a4565b9050919050565b611f6e81611f44565b82525050565b5f602082019050611f875f830184611f65565b92915050565b5f611f97826118a4565b9150611fa2836118a4565b9250828203905081811115611fba57611fb9611ed2565b5b92915050565b7f4e487b71000000000000000000000000000000000000000000000000000000005f52603260045260245ffd5b5f819050815f5260205f209050919050565b5f6020601f8301049050919050565b5f82821b905092915050565b5f600883026120497fffffffffffffffffffffffffffffffffffffffffffffffffffffffffffffffff8261200e565b612053868361200e565b95508019841693508086168417925050509392505050565b5f61208561208061207b846118a4565b611f3b565b6118a4565b9050919050565b5f819050919050565b61209e8361206b565b6120b26120aa8261208c565b84845461201a565b825550505050565b5f90565b6120c66120ba565b6120d1818484612095565b505050565b5b818110156120f4576120e95f826120be565b6001810190506120d7565b5050565b601f8211156121395761210a81611fed565b61211384611fff565b81016020851015612122578190505b61213661212e85611fff565b8301826120d6565b50505b505050565b5f82821c905092915050565b5f6121595f198460080261213e565b1980831691505092915050565b5f612171838361214a565b9150826002028217905092915050565b61218a8261178f565b67ffffffffffffffff8111156121a3576121a2611a27565b5b6121ad8254611ea2565b6121b88282856120f8565b5f60209050601f8311600181146121e9575f84156121d7578287015190505b6121e18582612166565b865550612248565b601f1984166121f786611fed565b5f5b8281101561221e578489015182556001820191506020850194506020810190506121f9565b8683101561223b5784890151612237601f89168261214a565b8355505b6001600288020188555050505b505050505050565b5f6040820190508181035f83015261226881856117e1565b90506122776020830184611948565b9392505050565b7f497373756520646f6573206e6f742065786973740000000000000000000000005f82015250565b5f6122b2601483611799565b91506122bd8261227e565b602082019050919050565b5f6020820190508181035f8301526122df816122a6565b9050919050565b7f43616e6e6f7420766f7465206f6e206275726e656420697373756500000000005f82015250565b5f61231a601b83611799565b9150612325826122e6565b602082019050919050565b5f6020820190508181035f8301526123478161230e565b9050919050565b7f4e6f20746f6b656e7320746f20766f74652077697468000000000000000000005f82015250565b5f612382601683611799565b915061238d8261234e565b602082019050919050565b5f6020820190508181035f8301526123af81612376565b9050919050565b7f4e487b71000000000000000000000000000000000000000000000000000000005f52602160045260245ffd5b600381106123f4576123f36123b6565b5b50565b5f819050612404826123e3565b919050565b5f612413826123f7565b9050919050565b61242381612409565b82525050565b5f60408201905061243c5f83018561241a565b6124496020830184611948565b9392505050565b7f43616e6e6f7420616363657373206275726e65642069737375650000000000005f82015250565b5f612484601a83611799565b915061248f82612450565b602082019050919050565b5f6020820190508181035f8301526124b181612478565b9050919050565b5f6124c2826118a4565b91507fffffffffffffffffffffffffffffffffffffffffffffffffffffffffffffffff82036124f4576124f3611ed2565b5b600182019050919050565b61250881611869565b82525050565b5f6060820190506125215f8301866124ff565b61252e6020830185611948565b61253b6040830184611948565b949350505050565b5f6020820190506125565f8301846124ff565b9291505056fea264697066735822122052c9f9ecc41283d719586af1441c630b0bdf2e0a0694a5e520cb7dc88540755664736f6c63430008140033","linkReferences":{}},"methodIdentifiers":{"allowance(address,address)":"dd62ed3e","approve(address,uint256)":"095ea7b3","balanceOf(address)":"70a08231","claim()":"4e71d92d","createIssue(string,uint256)":"8615d855","decimals()":"313ce567","getIssue(uint256)":"976b3113","getIssueCount()":"0d4c4708","hasClaimedTokens(address)":"ed613ac1","maxSupply()":"d5abeb01","name()":"06fdde03","remainingTokens()":"bf583903","symbol()":"95d89b41","totalSupply()":"18160ddd","transfer(address,uint256)":"a9059cbb","transferFrom(address,address,uint256)":"23b872dd","vote(uint256,uint8)":"943e8216"},"id":13}