{"abi":[{"type":"constructor","inputs":[],"stateMutability":"nonpayable"},{"type":"function","name":"addRecord","inputs":[{"name":"_albumName","type":"string","internalType":"string"}],"outputs":[],"stateMutability":"nonpayable"},{"type":"function","name":"approvedRecords","inputs":[{"name":"","type":"string","internalType":"string"}],"outputs":[{"name":"","type":"bool","internalType":"bool"}],"stateMutability":"view"},{"type":"function","name":"getApprovedRecords","inputs":[],"outputs":[{"name":"","type":"string[]","internalType":"string[]"}],"stateMutability":"view"},{"type":"function","name":"getApprovedRecordsCount","inputs":[],"outputs":[{"name":"","type":"uint256","internalType":"uint256"}],"stateMutability":"view"},{"type":"function","name":"getUserFavorites","inputs":[{"name":"_user","type":"address","internalType":"address"}],"outputs":[{"name":"","type":"string[]","internalType":"string[]"}],"stateMutability":"view"},{"type":"function","name":"getUserFavoritesCount","inputs":[{"name":"_user","type":"address","internalType":"address"}],"outputs":[{"name":"","type":"uint256","internalType":"uint256"}],"stateMutability":"view"},{"type":"function","name":"isApprovedRecord","inputs":[{"name":"_albumName","type":"string","internalType":"string"}],"outputs":[{"name":"","type":"bool","internalType":"bool"}],"stateMutability":"view"},{"type":"function","name":"isUserFavorite","inputs":[{"name":"_user","type":"address","internalType":"address"},{"name":"_albumName","type":"string","internalType":"string"}],"outputs":[{"name":"","type":"bool","internalType":"bool"}],"stateMutability":"view"},{"type":"function","name":"removeRecord","inputs":[{"name":"_albumName","type":"string","internalType":"string"}],"outputs":[],"stateMutability":"nonpayable"},{"type":"function","name":"resetUserFavorites","inputs":[],"outputs":[],"stateMutability":"nonpayable"},{"type":"function","name":"userFavorites","inputs":[{"name":"","type":"address","internalType":"address"},{"name":"","type":"string","internalType":"string"}],"outputs":[{"name":"","type":"bool","internalType":"bool"}],"stateMutability":"view"},{"type":"error","name":"NotApproved","inputs":[{"name":"albumName","type":"string","internalType":"string"}]}],"bytecode":{"object":"0x60806040523480156200001157600080fd5b50620000586040518060400160405280600881526020017f546872696c6c65720000000000000000000000000000000000000000000000008152506200028e60201b60201c565b6200009e6040518060400160405280600d81526020017f4261636b20696e20426c61636b000000000000000000000000000000000000008152506200028e60201b60201c565b620000e46040518060400160405280600d81526020017f54686520426f64796775617264000000000000000000000000000000000000008152506200028e60201b60201c565b6200012a6040518060400160405280601981526020017f546865204461726b2053696465206f6620746865204d6f6f6e000000000000008152506200028e60201b60201c565b620001706040518060400160405280601f81526020017f546865697220477265617465737420486974732028313937312d3139373529008152506200028e60201b60201c565b620001b66040518060400160405280601081526020017f486f74656c2043616c69666f726e6961000000000000000000000000000000008152506200028e60201b60201c565b620001fc6040518060400160405280600c81526020017f436f6d65204f6e204f76657200000000000000000000000000000000000000008152506200028e60201b60201c565b620002426040518060400160405280600781526020017f52756d6f757273000000000000000000000000000000000000000000000000008152506200028e60201b60201c565b620002886040518060400160405280601481526020017f5361747572646179204e696768742046657665720000000000000000000000008152506200028e60201b60201c565b620006e9565b6001600082604051620002a291906200037a565b908152602001604051809103902060006101000a81548160ff021916908315150217905550600281908060018154018082558091505060019003906000526020600020016000909190919091509081620002fd919062000602565b5050565b600081519050919050565b600081905092915050565b60005b83811015620003375780820151818401526020810190506200031a565b60008484015250505050565b6000620003508262000301565b6200035c81856200030c565b93506200036e81856020860162000317565b80840191505092915050565b600062000388828462000343565b915081905092915050565b7f4e487b7100000000000000000000000000000000000000000000000000000000600052604160045260246000fd5b7f4e487b7100000000000000000000000000000000000000000000000000000000600052602260045260246000fd5b600060028204905060018216806200040a57607f821691505b60208210810362000420576200041f620003c2565b5b50919050565b60008190508160005260206000209050919050565b60006020601f8301049050919050565b600082821b905092915050565b6000600883026200048a7fffffffffffffffffffffffffffffffffffffffffffffffffffffffffffffffff826200044b565b6200049686836200044b565b95508019841693508086168417925050509392505050565b6000819050919050565b6000819050919050565b6000620004e3620004dd620004d784620004ae565b620004b8565b620004ae565b9050919050565b6000819050919050565b620004ff83620004c2565b620005176200050e82620004ea565b84845462000458565b825550505050565b600090565b6200052e6200051f565b6200053b818484620004f4565b505050565b5b8181101562000563576200055760008262000524565b60018101905062000541565b5050565b601f821115620005b2576200057c8162000426565b62000587846200043b565b8101602085101562000597578190505b620005af620005a6856200043b565b83018262000540565b50505b505050565b600082821c905092915050565b6000620005d760001984600802620005b7565b1980831691505092915050565b6000620005f28383620005c4565b9150826002028217905092915050565b6200060d8262000301565b67ffffffffffffffff81111562000629576200062862000393565b5b620006358254620003f1565b6200064282828562000567565b600060209050601f8311600181146200067a576000841562000665578287015190505b620006718582620005e4565b865550620006e1565b601f1984166200068a8662000426565b60005b82811015620006b4578489015182556001820191506020850194506020810190506200068d565b86831015620006d45784890151620006d0601f891682620005c4565b8355505b6001600288020188555050505b505050505050565b61175380620006f96000396000f3fe608060405234801561001057600080fd5b50600436106100a95760003560e01c8063b374ac5911610071578063b374ac5914610140578063c0adf7dc14610170578063c75c333c146101a0578063c7853148146101d0578063d81aa8c414610200578063eee186d61461021c576100a9565b8063081f0673146100ae5780631cf0830b146100de5780635c045c3a146100fc578063837f88781461011a5780638fb124fa14610124575b600080fd5b6100c860048036038101906100c39190610dcd565b61024c565b6040516100d59190610e31565b60405180910390f35b6100e6610280565b6040516100f39190610f8d565b60405180910390f35b610104610359565b6040516101119190610fc8565b60405180910390f35b610122610366565b005b61013e60048036038101906101399190610dcd565b610575565b005b61015a60048036038101906101559190610dcd565b6107bc565b6040516101679190610e31565b60405180910390f35b61018a60048036038101906101859190611041565b6107f2565b6040516101979190610fc8565b60405180910390f35b6101ba60048036038101906101b5919061106e565b61083e565b6040516101c79190610e31565b60405180910390f35b6101ea60048036038101906101e59190611041565b610883565b6040516101f79190610f8d565b60405180910390f35b61021a60048036038101906102159190610dcd565b61099b565b005b6102366004803603810190610231919061106e565b610b5e565b6040516102439190610e31565b60405180910390f35b6000808260405161025d9190611106565b908152602001604051809103902060009054906101000a900460ff169050919050565b60606002805480602002602001604051908101604052809291908181526020016000905b828210156103505783829060005260206000200180546102c39061114c565b80601f01602080910402602001604051908101604052809291908181526020018280546102ef9061114c565b801561033c5780601f106103115761010080835404028352916020019161033c565b820191906000526020600020905b81548152906001019060200180831161031f57829003601f168201915b5050505050815260200190600101906102a4565b50505050905090565b6000600280549050905090565b6000600360003373ffffffffffffffffffffffffffffffffffffffff1673ffffffffffffffffffffffffffffffffffffffff168152602001908152602001600020805480602002602001604051908101604052809291908181526020016000905b828210156104735783829060005260206000200180546103e69061114c565b80601f01602080910402602001604051908101604052809291908181526020018280546104129061114c565b801561045f5780601f106104345761010080835404028352916020019161045f565b820191906000526020600020905b81548152906001019060200180831161044257829003601f168201915b5050505050815260200190600101906103c7565b50505050905060005b8151811015610526576000600160003373ffffffffffffffffffffffffffffffffffffffff1673ffffffffffffffffffffffffffffffffffffffff1681526020019081526020016000208383815181106104d9576104d861117d565b5b60200260200101516040516104ee9190611106565b908152602001604051809103902060006101000a81548160ff021916908315150217905550808061051e906111db565b91505061047c565b50600360003373ffffffffffffffffffffffffffffffffffffffff1673ffffffffffffffffffffffffffffffffffffffff16815260200190815260200160002060006105729190610bd1565b50565b600160003373ffffffffffffffffffffffffffffffffffffffff1673ffffffffffffffffffffffffffffffffffffffff168152602001908152602001600020816040516105c29190611106565b908152602001604051809103902060009054906101000a900460ff16156107b9576000600160003373ffffffffffffffffffffffffffffffffffffffff1673ffffffffffffffffffffffffffffffffffffffff168152602001908152602001600020826040516106329190611106565b908152602001604051809103902060006101000a81548160ff0219169083151502179055506000600360003373ffffffffffffffffffffffffffffffffffffffff1673ffffffffffffffffffffffffffffffffffffffff168152602001908152602001600020905060005b81805490508110156107b657826040516020016106ba9190611106565b604051602081830303815290604052805190602001208282815481106106e3576106e261117d565b5b906000526020600020016040516020016106fd91906112bb565b60405160208183030381529060405280519060200120036107a357816001838054905061072a91906112d2565b8154811061073b5761073a61117d565b5b906000526020600020018282815481106107585761075761117d565b5b90600052602060002001908161076e91906114c8565b50818054806107805761077f6115b0565b5b60019003818190600052602060002001600061079c9190610bf2565b90556107b6565b80806107ae906111db565b91505061069d565b50505b50565b6000818051602081018201805184825260208301602085012081835280955050505050506000915054906101000a900460ff1681565b6000600360008373ffffffffffffffffffffffffffffffffffffffff1673ffffffffffffffffffffffffffffffffffffffff168152602001908152602001600020805490509050919050565b6001602052816000526040600020818051602081018201805184825260208301602085012081835280955050505050506000915091509054906101000a900460ff1681565b6060600360008373ffffffffffffffffffffffffffffffffffffffff1673ffffffffffffffffffffffffffffffffffffffff168152602001908152602001600020805480602002602001604051908101604052809291908181526020016000905b828210156109905783829060005260206000200180546109039061114c565b80601f016020809104026020016040519081016040528092919081815260200182805461092f9061114c565b801561097c5780601f106109515761010080835404028352916020019161097c565b820191906000526020600020905b81548152906001019060200180831161095f57829003601f168201915b5050505050815260200190600101906108e4565b505050509050919050565b6000816040516109ab9190611106565b908152602001604051809103902060009054906101000a900460ff16610a0857806040517f4f0ffc1b0000000000000000000000000000000000000000000000000000000081526004016109ff9190611629565b60405180910390fd5b600160003373ffffffffffffffffffffffffffffffffffffffff1673ffffffffffffffffffffffffffffffffffffffff16815260200190815260200160002081604051610a559190611106565b908152602001604051809103902060009054906101000a900460ff16610b5b5760018060003373ffffffffffffffffffffffffffffffffffffffff1673ffffffffffffffffffffffffffffffffffffffff16815260200190815260200160002082604051610ac39190611106565b908152602001604051809103902060006101000a81548160ff021916908315150217905550600360003373ffffffffffffffffffffffffffffffffffffffff1673ffffffffffffffffffffffffffffffffffffffff16815260200190815260200160002081908060018154018082558091505060019003906000526020600020016000909190919091509081610b59919061164b565b505b50565b6000600160008473ffffffffffffffffffffffffffffffffffffffff1673ffffffffffffffffffffffffffffffffffffffff16815260200190815260200160002082604051610bad9190611106565b908152602001604051809103902060009054906101000a900460ff16905092915050565b5080546000825590600052602060002090810190610bef9190610c32565b50565b508054610bfe9061114c565b6000825580601f10610c105750610c2f565b601f016020900490600052602060002090810190610c2e9190610c56565b5b50565b5b80821115610c525760008181610c499190610bf2565b50600101610c33565b5090565b5b80821115610c6f576000816000905550600101610c57565b5090565b6000604051905090565b600080fd5b600080fd5b600080fd5b600080fd5b6000601f19601f8301169050919050565b7f4e487b7100000000000000000000000000000000000000000000000000000000600052604160045260246000fd5b610cda82610c91565b810181811067ffffffffffffffff82111715610cf957610cf8610ca2565b5b80604052505050565b6000610d0c610c73565b9050610d188282610cd1565b919050565b600067ffffffffffffffff821115610d3857610d37610ca2565b5b610d4182610c91565b9050602081019050919050565b82818337600083830152505050565b6000610d70610d6b84610d1d565b610d02565b905082815260208101848484011115610d8c57610d8b610c8c565b5b610d97848285610d4e565b509392505050565b600082601f830112610db457610db3610c87565b5b8135610dc4848260208601610d5d565b91505092915050565b600060208284031215610de357610de2610c7d565b5b600082013567ffffffffffffffff811115610e0157610e00610c82565b5b610e0d84828501610d9f565b91505092915050565b60008115159050919050565b610e2b81610e16565b82525050565b6000602082019050610e466000830184610e22565b92915050565b600081519050919050565b600082825260208201905092915050565b6000819050602082019050919050565b600081519050919050565b600082825260208201905092915050565b60005b83811015610eb2578082015181840152602081019050610e97565b60008484015250505050565b6000610ec982610e78565b610ed38185610e83565b9350610ee3818560208601610e94565b610eec81610c91565b840191505092915050565b6000610f038383610ebe565b905092915050565b6000602082019050919050565b6000610f2382610e4c565b610f2d8185610e57565b935083602082028501610f3f85610e68565b8060005b85811015610f7b5784840389528151610f5c8582610ef7565b9450610f6783610f0b565b925060208a01995050600181019050610f43565b50829750879550505050505092915050565b60006020820190508181036000830152610fa78184610f18565b905092915050565b6000819050919050565b610fc281610faf565b82525050565b6000602082019050610fdd6000830184610fb9565b92915050565b600073ffffffffffffffffffffffffffffffffffffffff82169050919050565b600061100e82610fe3565b9050919050565b61101e81611003565b811461102957600080fd5b50565b60008135905061103b81611015565b92915050565b60006020828403121561105757611056610c7d565b5b60006110658482850161102c565b91505092915050565b6000806040838503121561108557611084610c7d565b5b60006110938582860161102c565b925050602083013567ffffffffffffffff8111156110b4576110b3610c82565b5b6110c085828601610d9f565b9150509250929050565b600081905092915050565b60006110e082610e78565b6110ea81856110ca565b93506110fa818560208601610e94565b80840191505092915050565b600061111282846110d5565b915081905092915050565b7f4e487b7100000000000000000000000000000000000000000000000000000000600052602260045260246000fd5b6000600282049050600182168061116457607f821691505b6020821081036111775761117661111d565b5b50919050565b7f4e487b7100000000000000000000000000000000000000000000000000000000600052603260045260246000fd5b7f4e487b7100000000000000000000000000000000000000000000000000000000600052601160045260246000fd5b60006111e682610faf565b91507fffffffffffffffffffffffffffffffffffffffffffffffffffffffffffffffff8203611218576112176111ac565b5b600182019050919050565b60008190508160005260206000209050919050565b600081546112458161114c565b61124f81866110ca565b9450600182166000811461126a576001811461127f576112b2565b60ff19831686528115158202860193506112b2565b61128885611223565b60005b838110156112aa5781548189015260018201915060208101905061128b565b838801955050505b50505092915050565b60006112c78284611238565b915081905092915050565b60006112dd82610faf565b91506112e883610faf565b9250828203905081811115611300576112ff6111ac565b5b92915050565b6000815490506113158161114c565b9050919050565b60008190508160005260206000209050919050565b60006020601f8301049050919050565b600082821b905092915050565b60006008830261137e7fffffffffffffffffffffffffffffffffffffffffffffffffffffffffffffffff82611341565b6113888683611341565b95508019841693508086168417925050509392505050565b6000819050919050565b60006113c56113c06113bb84610faf565b6113a0565b610faf565b9050919050565b6000819050919050565b6113df836113aa565b6113f36113eb826113cc565b84845461134e565b825550505050565b600090565b6114086113fb565b6114138184846113d6565b505050565b5b818110156114375761142c600082611400565b600181019050611419565b5050565b601f82111561147c5761144d81611223565b61145684611331565b81016020851015611465578190505b61147961147185611331565b830182611418565b50505b505050565b600082821c905092915050565b600061149f60001984600802611481565b1980831691505092915050565b60006114b8838361148e565b9150826002028217905092915050565b8181036114d65750506115ae565b6114df82611306565b67ffffffffffffffff8111156114f8576114f7610ca2565b5b611502825461114c565b61150d82828561143b565b6000601f83116001811461153c576000841561152a578287015490505b61153485826114ac565b8655506115a7565b601f19841661154a8761131c565b965061155586611223565b60005b8281101561157d57848901548255600182019150600185019450602081019050611558565b8683101561159a5784890154611596601f89168261148e565b8355505b6001600288020188555050505b5050505050505b565b7f4e487b7100000000000000000000000000000000000000000000000000000000600052603160045260246000fd5b600082825260208201905092915050565b60006115fb82610e78565b61160581856115df565b9350611615818560208601610e94565b61161e81610c91565b840191505092915050565b6000602082019050818103600083015261164381846115f0565b905092915050565b61165482610e78565b67ffffffffffffffff81111561166d5761166c610ca2565b5b611677825461114c565b61168282828561143b565b600060209050601f8311600181146116b557600084156116a3578287015190505b6116ad85826114ac565b865550611715565b601f1984166116c386611223565b60005b828110156116eb578489015182556001820191506020850194506020810190506116c6565b868310156117085784890151611704601f89168261148e565b8355505b6001600288020188555050505b50505050505056fea2646970667358221220310cc1e7520258c0e811ec87e0d14e5cc59d9fe312ba3117933248f95a7f7b2864736f6c63430008130033","linkReferences":{}},"methodIdentifiers":{"addRecord(string)":"d81aa8c4","approvedRecords(string)":"b374ac59","getApprovedRecords()":"1cf0830b","getApprovedRecordsCount()":"5c045c3a","getUserFavorites(address)":"c7853148","getUserFavoritesCount(address)":"c0adf7dc","isApprovedRecord(string)":"081f0673","isUserFavorite(address,string)":"eee186d6","removeRecord(string)":"8fb124fa","resetUserFavorites()":"837f8878","userFavorites(address,string)":"c75c333c"},"id":21}