{"abi":[{"type":"function","name":"adder","inputs":[{"name":"_a","type":"uint256","internalType":"uint256"},{"name":"_b","type":"uint256","internalType":"uint256"}],"outputs":[{"name":"sum","type":"uint256","internalType":"uint256"},{"name":"error","type":"bool","internalType":"bool"}],"stateMutability":"pure"},{"type":"function","name":"subtractor","inputs":[{"name":"_a","type":"uint256","internalType":"uint256"},{"name":"_b","type":"uint256","internalType":"uint256"}],"outputs":[{"name":"difference","type":"uint256","internalType":"uint256"},{"name":"error","type":"bool","internalType":"bool"}],"stateMutability":"pure"}],"bytecode":{"object":"0x608060405234801561001057600080fd5b50610266806100206000396000f3fe608060405234801561001057600080fd5b50600436106100365760003560e01c806306b034e91461003b5780635270312a1461006c575b600080fd5b6100556004803603810190610050919061013a565b61009d565b6040516100639291906101a4565b60405180910390f35b6100866004803603810190610081919061013a565b6100cd565b6040516100949291906101a4565b60405180910390f35b60008060008385019050848110156100bd576000600192509250506100c6565b80600092509250505b9250929050565b600080838311156100e55760006001915091506100f8565b82846100f191906101fc565b6000915091505b9250929050565b600080fd5b6000819050919050565b61011781610104565b811461012257600080fd5b50565b6000813590506101348161010e565b92915050565b60008060408385031215610151576101506100ff565b5b600061015f85828601610125565b925050602061017085828601610125565b9150509250929050565b61018381610104565b82525050565b60008115159050919050565b61019e81610189565b82525050565b60006040820190506101b9600083018561017a565b6101c66020830184610195565b9392505050565b7f4e487b7100000000000000000000000000000000000000000000000000000000600052601160045260246000fd5b600061020782610104565b915061021283610104565b925082820390508181111561022a576102296101cd565b5b9291505056fea264697066735822122084952c0807125a17c4dd4992a891e72b71785b6d5d47e89e3aabb6f9d80b843764736f6c63430008130033","linkReferences":{}},"methodIdentifiers":{"adder(uint256,uint256)":"06b034e9","subtractor(uint256,uint256)":"5270312a"},"id":21}