{"abi":[{"type":"constructor","inputs":[{"name":"_salesPerson","type":"address","internalType":"address"},{"name":"_engineeringManager","type":"address","internalType":"address"}],"stateMutability":"nonpayable"},{"type":"function","name":"engineeringManager","inputs":[],"outputs":[{"name":"","type":"address","internalType":"address"}],"stateMutability":"view"},{"type":"function","name":"getEngineeringManagerInfo","inputs":[],"outputs":[{"name":"id","type":"uint256","internalType":"uint256"},{"name":"managerId","type":"uint256","internalType":"uint256"},{"name":"salary","type":"uint256","internalType":"uint256"},{"name":"reportsCount","type":"uint256","internalType":"uint256"}],"stateMutability":"view"},{"type":"function","name":"getSalespersonInfo","inputs":[],"outputs":[{"name":"id","type":"uint256","internalType":"uint256"},{"name":"managerId","type":"uint256","internalType":"uint256"},{"name":"hourlyRate","type":"uint256","internalType":"uint256"},{"name":"annualCost","type":"uint256","internalType":"uint256"}],"stateMutability":"view"},{"type":"function","name":"salesPerson","inputs":[],"outputs":[{"name":"","type":"address","internalType":"address"}],"stateMutability":"view"},{"type":"function","name":"verifyInheritance","inputs":[],"outputs":[{"name":"salespersonValid","type":"bool","internalType":"bool"},{"name":"managerValid","type":"bool","internalType":"bool"}],"stateMutability":"view"},{"type":"event","name":"ContractsRegistered","inputs":[{"name":"salesPerson","type":"address","indexed":true,"internalType":"address"},{"name":"engineeringManager","type":"address","indexed":true,"internalType":"address"}],"anonymous":false}],"bytecode":{"object":"0x608060405234801561001057600080fd5b50604051610a62380380610a6283398181016040528101906100329190610177565b816000806101000a81548173ffffffffffffffffffffffffffffffffffffffff021916908373ffffffffffffffffffffffffffffffffffffffff16021790555080600160006101000a81548173ffffffffffffffffffffffffffffffffffffffff021916908373ffffffffffffffffffffffffffffffffffffffff1602179055508073ffffffffffffffffffffffffffffffffffffffff168273ffffffffffffffffffffffffffffffffffffffff167fdf5dbda57ffcb8feb0fb9bbc3026d4fe961f059a7944e0570bbfa0404ea20d6660405160405180910390a350506101b7565b600080fd5b600073ffffffffffffffffffffffffffffffffffffffff82169050919050565b600061014482610119565b9050919050565b61015481610139565b811461015f57600080fd5b50565b6000815190506101718161014b565b92915050565b6000806040838503121561018e5761018d610114565b5b600061019c85828601610162565b92505060206101ad85828601610162565b9150509250929050565b61089c806101c66000396000f3fe608060405234801561001057600080fd5b50600436106100575760003560e01c80630f6281941461005c578063687981dd1461007a578063794f9dab14610098578063ed4492df146100b7578063f4747cea146100d8575b600080fd5b6100646100f9565b604051610071919061074b565b60405180910390f35b61008261011d565b60405161008f919061074b565b60405180910390f35b6100a0610143565b6040516100ae929190610781565b60405180910390f35b6100bf61031b565b6040516100cf94939291906107c3565b60405180910390f35b6100e0610513565b6040516100f094939291906107c3565b60405180910390f35b60008054906101000a900473ffffffffffffffffffffffffffffffffffffffff1681565b600160009054906101000a900473ffffffffffffffffffffffffffffffffffffffff1681565b60008060008054906101000a900473ffffffffffffffffffffffffffffffffffffffff1673ffffffffffffffffffffffffffffffffffffffff16635cdee0c06040518163ffffffff1660e01b8152600401602060405180830381865afa9250505080156101ce57506040513d601f19601f820116820180604052508101906101cb9190610839565b60015b6101db57600091506101e1565b60019250505b600160009054906101000a900473ffffffffffffffffffffffffffffffffffffffff1673ffffffffffffffffffffffffffffffffffffffff16635cdee0c06040518163ffffffff1660e01b8152600401602060405180830381865afa92505050801561026b57506040513d601f19601f820116820180604052508101906102689190610839565b60015b6102785760009050610317565b600160009054906101000a900473ffffffffffffffffffffffffffffffffffffffff1673ffffffffffffffffffffffffffffffffffffffff166327d33f726040518163ffffffff1660e01b8152600401602060405180830381865afa92505050801561030257506040513d601f19601f820116820180604052508101906102ff9190610839565b60015b61030f5760009150610315565b60019250505b505b9091565b6000806000806000600160009054906101000a900473ffffffffffffffffffffffffffffffffffffffff1690508073ffffffffffffffffffffffffffffffffffffffff16633f83ea3b6040518163ffffffff1660e01b8152600401602060405180830381865afa158015610393573d6000803e3d6000fd5b505050506040513d601f19601f820116820180604052508101906103b79190610839565b8173ffffffffffffffffffffffffffffffffffffffff1663f5895a0a6040518163ffffffff1660e01b8152600401602060405180830381865afa158015610402573d6000803e3d6000fd5b505050506040513d601f19601f820116820180604052508101906104269190610839565b8273ffffffffffffffffffffffffffffffffffffffff166350dca6ab6040518163ffffffff1660e01b8152600401602060405180830381865afa158015610471573d6000803e3d6000fd5b505050506040513d601f19601f820116820180604052508101906104959190610839565b8373ffffffffffffffffffffffffffffffffffffffff166327d33f726040518163ffffffff1660e01b8152600401602060405180830381865afa1580156104e0573d6000803e3d6000fd5b505050506040513d601f19601f820116820180604052508101906105049190610839565b94509450945094505090919293565b60008060008060008060009054906101000a900473ffffffffffffffffffffffffffffffffffffffff1690508073ffffffffffffffffffffffffffffffffffffffff16633f83ea3b6040518163ffffffff1660e01b8152600401602060405180830381865afa15801561058a573d6000803e3d6000fd5b505050506040513d601f19601f820116820180604052508101906105ae9190610839565b8173ffffffffffffffffffffffffffffffffffffffff1663f5895a0a6040518163ffffffff1660e01b8152600401602060405180830381865afa1580156105f9573d6000803e3d6000fd5b505050506040513d601f19601f8201168201806040525081019061061d9190610839565b8273ffffffffffffffffffffffffffffffffffffffff166359a7b3fe6040518163ffffffff1660e01b8152600401602060405180830381865afa158015610668573d6000803e3d6000fd5b505050506040513d601f19601f8201168201806040525081019061068c9190610839565b8373ffffffffffffffffffffffffffffffffffffffff16635cdee0c06040518163ffffffff1660e01b8152600401602060405180830381865afa1580156106d7573d6000803e3d6000fd5b505050506040513d601f19601f820116820180604052508101906106fb9190610839565b94509450945094505090919293565b600073ffffffffffffffffffffffffffffffffffffffff82169050919050565b60006107358261070a565b9050919050565b6107458161072a565b82525050565b6000602082019050610760600083018461073c565b92915050565b60008115159050919050565b61077b81610766565b82525050565b60006040820190506107966000830185610772565b6107a36020830184610772565b9392505050565b6000819050919050565b6107bd816107aa565b82525050565b60006080820190506107d860008301876107b4565b6107e560208301866107b4565b6107f260408301856107b4565b6107ff60608301846107b4565b95945050505050565b600080fd5b610816816107aa565b811461082157600080fd5b50565b6000815190506108338161080d565b92915050565b60006020828403121561084f5761084e610808565b5b600061085d84828501610824565b9150509291505056fea2646970667358221220a938b9d3fc277da8a38757a4085feb981a5eed427fe843f64d8d4bbf2f41ff4464736f6c63430008130033","linkReferences":{}},"methodIdentifiers":{"engineeringManager()":"687981dd","getEngineeringManagerInfo()":"ed4492df","getSalespersonInfo()":"f4747cea","salesPerson()":"0f628194","verifyInheritance()":"794f9dab"},"id":21}