{"abi":[{"type":"function","name":"addReport","inputs":[{"name":"_employeeId","type":"uint256","internalType":"uint256"}],"outputs":[],"stateMutability":"nonpayable"},{"type":"function","name":"employeeIds","inputs":[{"name":"","type":"uint256","internalType":"uint256"}],"outputs":[{"name":"","type":"uint256","internalType":"uint256"}],"stateMutability":"view"},{"type":"function","name":"getReports","inputs":[],"outputs":[{"name":"","type":"uint256[]","internalType":"uint256[]"}],"stateMutability":"view"},{"type":"function","name":"getReportsCount","inputs":[],"outputs":[{"name":"","type":"uint256","internalType":"uint256"}],"stateMutability":"view"},{"type":"function","name":"isReport","inputs":[{"name":"_employeeId","type":"uint256","internalType":"uint256"}],"outputs":[{"name":"","type":"bool","internalType":"bool"}],"stateMutability":"view"},{"type":"function","name":"removeReport","inputs":[{"name":"_employeeId","type":"uint256","internalType":"uint256"}],"outputs":[],"stateMutability":"nonpayable"},{"type":"function","name":"resetReports","inputs":[],"outputs":[],"stateMutability":"nonpayable"}],"bytecode":{"object":"0x608060405234801561001057600080fd5b50610675806100206000396000f3fe608060405234801561001057600080fd5b506004361061007d5760003560e01c80637e3975361161005b5780637e397536146100ec57806386e73dc31461011c578063a3c86daf14610138578063a596d3c8146101565761007d565b8063234397c31461008257806327d33f72146100b2578063318b5c2a146100d0575b600080fd5b61009c600480360381019061009791906103c9565b610160565b6040516100a99190610411565b60405180910390f35b6100ba6101c2565b6040516100c7919061043b565b60405180910390f35b6100ea60048036038101906100e591906103c9565b6101ce565b005b610106600480360381019061010191906103c9565b610299565b604051610113919061043b565b60405180910390f35b610136600480360381019061013191906103c9565b6102bd565b005b6101406102e9565b60405161014d9190610514565b60405180910390f35b61015e610341565b005b600080600090505b6000805490508110156101b757826000828154811061018a57610189610536565b5b9060005260206000200154036101a45760019150506101bd565b80806101af90610594565b915050610168565b50600090505b919050565b60008080549050905090565b60005b6000805490508110156102955781600082815481106101f3576101f2610536565b5b906000526020600020015403610282576000600160008054905061021791906105dc565b8154811061022857610227610536565b5b90600052602060002001546000828154811061024757610246610536565b5b9060005260206000200181905550600080548061026757610266610610565b5b60019003818190600052602060002001600090559055610295565b808061028d90610594565b9150506101d1565b5050565b600081815481106102a957600080fd5b906000526020600020016000915090505481565b600081908060018154018082558091505060019003906000526020600020016000909190919091505550565b6060600080548060200260200160405190810160405280929190818152602001828054801561033757602002820191906000526020600020905b815481526020019060010190808311610323575b5050505050905090565b60008061034e9190610350565b565b508054600082559060005260206000209081019061036e9190610371565b50565b5b8082111561038a576000816000905550600101610372565b5090565b600080fd5b6000819050919050565b6103a681610393565b81146103b157600080fd5b50565b6000813590506103c38161039d565b92915050565b6000602082840312156103df576103de61038e565b5b60006103ed848285016103b4565b91505092915050565b60008115159050919050565b61040b816103f6565b82525050565b60006020820190506104266000830184610402565b92915050565b61043581610393565b82525050565b6000602082019050610450600083018461042c565b92915050565b600081519050919050565b600082825260208201905092915050565b6000819050602082019050919050565b61048b81610393565b82525050565b600061049d8383610482565b60208301905092915050565b6000602082019050919050565b60006104c182610456565b6104cb8185610461565b93506104d683610472565b8060005b838110156105075781516104ee8882610491565b97506104f9836104a9565b9250506001810190506104da565b5085935050505092915050565b6000602082019050818103600083015261052e81846104b6565b905092915050565b7f4e487b7100000000000000000000000000000000000000000000000000000000600052603260045260246000fd5b7f4e487b7100000000000000000000000000000000000000000000000000000000600052601160045260246000fd5b600061059f82610393565b91507fffffffffffffffffffffffffffffffffffffffffffffffffffffffffffffffff82036105d1576105d0610565565b5b600182019050919050565b60006105e782610393565b91506105f283610393565b925082820390508181111561060a57610609610565565b5b92915050565b7f4e487b7100000000000000000000000000000000000000000000000000000000600052603160045260246000fdfea2646970667358221220df8b0e9a15d4686f98f47bd1a4afbd01d4ccc726ff6c018f249ff551f7f1a73464736f6c63430008130033","linkReferences":{}},"methodIdentifiers":{"addReport(uint256)":"86e73dc3","employeeIds(uint256)":"7e397536","getReports()":"a3c86daf","getReportsCount()":"27d33f72","isReport(uint256)":"234397c3","removeReport(uint256)":"318b5c2a","resetReports()":"a596d3c8"},"id":21}