{"abi":[{"type":"constructor","inputs":[{"name":"_idNumber","type":"uint256","internalType":"uint256"},{"name":"_managerId","type":"uint256","internalType":"uint256"},{"name":"_annualSalary","type":"uint256","internalType":"uint256"}],"stateMutability":"nonpayable"},{"type":"function","name":"annualSalary","inputs":[],"outputs":[{"name":"","type":"uint256","internalType":"uint256"}],"stateMutability":"view"},{"type":"function","name":"getAnnualCost","inputs":[],"outputs":[{"name":"","type":"uint256","internalType":"uint256"}],"stateMutability":"view"},{"type":"function","name":"idNumber","inputs":[],"outputs":[{"name":"","type":"uint256","internalType":"uint256"}],"stateMutability":"view"},{"type":"function","name":"managerId","inputs":[],"outputs":[{"name":"","type":"uint256","internalType":"uint256"}],"stateMutability":"view"}],"bytecode":{"object":"0x608060405234801561001057600080fd5b5060405161023f38038061023f8339818101604052810190610032919061008e565b828281600081905550806001819055505050806002819055505050506100e1565b600080fd5b6000819050919050565b61006b81610058565b811461007657600080fd5b50565b60008151905061008881610062565b92915050565b6000806000606084860312156100a7576100a6610053565b5b60006100b586828701610079565b93505060206100c686828701610079565b92505060406100d786828701610079565b9150509250925092565b61014f806100f06000396000f3fe608060405234801561001057600080fd5b506004361061004c5760003560e01c80633f83ea3b1461005157806350dca6ab1461006f5780635cdee0c01461008d578063f5895a0a146100ab575b600080fd5b6100596100c9565b60405161006691906100fe565b60405180910390f35b6100776100cf565b60405161008491906100fe565b60405180910390f35b6100956100d5565b6040516100a291906100fe565b60405180910390f35b6100b36100df565b6040516100c091906100fe565b60405180910390f35b60005481565b60025481565b6000600254905090565b60015481565b6000819050919050565b6100f8816100e5565b82525050565b600060208201905061011360008301846100ef565b9291505056fea26469706673582212201f1ce877aa681f2a4f2900eed965e3f244d4efaf50ef4b594049fe80cab63e9064736f6c63430008130033","linkReferences":{}},"methodIdentifiers":{"annualSalary()":"50dca6ab","getAnnualCost()":"5cdee0c0","idNumber()":"3f83ea3b","managerId()":"f5895a0a"},"id":21}